{
  "contractName": "CapstoneERC721Token",
  "abi": [
    {
      "inputs": [
        {
          "internalType": "string",
          "name": "_name",
          "type": "string"
        },
        {
          "internalType": "string",
          "name": "_symbol",
          "type": "string"
        }
      ],
      "stateMutability": "nonpayable",
      "type": "constructor"
    },
    {
      "anonymous": false,
      "inputs": [
        {
          "indexed": true,
          "internalType": "address",
          "name": "owner",
          "type": "address"
        },
        {
          "indexed": true,
          "internalType": "address",
          "name": "approved",
          "type": "address"
        },
        {
          "indexed": true,
          "internalType": "uint256",
          "name": "tokenId",
          "type": "uint256"
        }
      ],
      "name": "Approval",
      "type": "event"
    },
    {
      "anonymous": false,
      "inputs": [
        {
          "indexed": true,
          "internalType": "address",
          "name": "owner",
          "type": "address"
        },
        {
          "indexed": true,
          "internalType": "address",
          "name": "operator",
          "type": "address"
        },
        {
          "indexed": false,
          "internalType": "bool",
          "name": "approved",
          "type": "bool"
        }
      ],
      "name": "ApprovalForAll",
      "type": "event"
    },
    {
      "anonymous": false,
      "inputs": [
        {
          "indexed": true,
          "internalType": "address",
          "name": "previousOwner",
          "type": "address"
        },
        {
          "indexed": true,
          "internalType": "address",
          "name": "newOwner",
          "type": "address"
        }
      ],
      "name": "OwnershipTransferred",
      "type": "event"
    },
    {
      "anonymous": false,
      "inputs": [
        {
          "indexed": true,
          "internalType": "address",
          "name": "account",
          "type": "address"
        }
      ],
      "name": "Paused",
      "type": "event"
    },
    {
      "anonymous": false,
      "inputs": [
        {
          "indexed": true,
          "internalType": "address",
          "name": "from",
          "type": "address"
        },
        {
          "indexed": true,
          "internalType": "address",
          "name": "to",
          "type": "address"
        },
        {
          "indexed": true,
          "internalType": "uint256",
          "name": "tokenId",
          "type": "uint256"
        }
      ],
      "name": "Transfer",
      "type": "event"
    },
    {
      "anonymous": false,
      "inputs": [
        {
          "indexed": true,
          "internalType": "address",
          "name": "account",
          "type": "address"
        }
      ],
      "name": "Unpaused",
      "type": "event"
    },
    {
      "inputs": [
        {
          "internalType": "address",
          "name": "to",
          "type": "address"
        },
        {
          "internalType": "uint256",
          "name": "tokenId",
          "type": "uint256"
        }
      ],
      "name": "approve",
      "outputs": [],
      "stateMutability": "nonpayable",
      "type": "function"
    },
    {
      "inputs": [
        {
          "internalType": "address",
          "name": "owner",
          "type": "address"
        }
      ],
      "name": "balanceOf",
      "outputs": [
        {
          "internalType": "uint256",
          "name": "",
          "type": "uint256"
        }
      ],
      "stateMutability": "view",
      "type": "function"
    },
    {
      "inputs": [],
      "name": "baseTokenURI",
      "outputs": [
        {
          "internalType": "string",
          "name": "",
          "type": "string"
        }
      ],
      "stateMutability": "view",
      "type": "function"
    },
    {
      "inputs": [
        {
          "internalType": "uint256",
          "name": "tokenId",
          "type": "uint256"
        }
      ],
      "name": "getApproved",
      "outputs": [
        {
          "internalType": "address",
          "name": "",
          "type": "address"
        }
      ],
      "stateMutability": "view",
      "type": "function"
    },
    {
      "inputs": [
        {
          "internalType": "address",
          "name": "owner",
          "type": "address"
        },
        {
          "internalType": "address",
          "name": "operator",
          "type": "address"
        }
      ],
      "name": "isApprovedForAll",
      "outputs": [
        {
          "internalType": "bool",
          "name": "",
          "type": "bool"
        }
      ],
      "stateMutability": "view",
      "type": "function"
    },
    {
      "inputs": [],
      "name": "name",
      "outputs": [
        {
          "internalType": "string",
          "name": "",
          "type": "string"
        }
      ],
      "stateMutability": "view",
      "type": "function"
    },
    {
      "inputs": [],
      "name": "owner",
      "outputs": [
        {
          "internalType": "address",
          "name": "",
          "type": "address"
        }
      ],
      "stateMutability": "view",
      "type": "function"
    },
    {
      "inputs": [
        {
          "internalType": "uint256",
          "name": "tokenId",
          "type": "uint256"
        }
      ],
      "name": "ownerOf",
      "outputs": [
        {
          "internalType": "address",
          "name": "",
          "type": "address"
        }
      ],
      "stateMutability": "view",
      "type": "function"
    },
    {
      "inputs": [
        {
          "internalType": "address",
          "name": "from",
          "type": "address"
        },
        {
          "internalType": "address",
          "name": "to",
          "type": "address"
        },
        {
          "internalType": "uint256",
          "name": "tokenId",
          "type": "uint256"
        }
      ],
      "name": "safeTransferFrom",
      "outputs": [],
      "stateMutability": "nonpayable",
      "type": "function"
    },
    {
      "inputs": [
        {
          "internalType": "address",
          "name": "from",
          "type": "address"
        },
        {
          "internalType": "address",
          "name": "to",
          "type": "address"
        },
        {
          "internalType": "uint256",
          "name": "tokenId",
          "type": "uint256"
        },
        {
          "internalType": "bytes",
          "name": "_data",
          "type": "bytes"
        }
      ],
      "name": "safeTransferFrom",
      "outputs": [],
      "stateMutability": "nonpayable",
      "type": "function"
    },
    {
      "inputs": [
        {
          "internalType": "address",
          "name": "to",
          "type": "address"
        },
        {
          "internalType": "bool",
          "name": "approved",
          "type": "bool"
        }
      ],
      "name": "setApprovalForAll",
      "outputs": [],
      "stateMutability": "nonpayable",
      "type": "function"
    },
    {
      "inputs": [
        {
          "internalType": "bool",
          "name": "value",
          "type": "bool"
        }
      ],
      "name": "setPaused",
      "outputs": [],
      "stateMutability": "nonpayable",
      "type": "function"
    },
    {
      "inputs": [
        {
          "internalType": "bytes4",
          "name": "interfaceId",
          "type": "bytes4"
        }
      ],
      "name": "supportsInterface",
      "outputs": [
        {
          "internalType": "bool",
          "name": "",
          "type": "bool"
        }
      ],
      "stateMutability": "view",
      "type": "function"
    },
    {
      "inputs": [],
      "name": "symbol",
      "outputs": [
        {
          "internalType": "string",
          "name": "",
          "type": "string"
        }
      ],
      "stateMutability": "view",
      "type": "function"
    },
    {
      "inputs": [
        {
          "internalType": "uint256",
          "name": "index",
          "type": "uint256"
        }
      ],
      "name": "tokenByIndex",
      "outputs": [
        {
          "internalType": "uint256",
          "name": "",
          "type": "uint256"
        }
      ],
      "stateMutability": "view",
      "type": "function"
    },
    {
      "inputs": [
        {
          "internalType": "address",
          "name": "owner",
          "type": "address"
        },
        {
          "internalType": "uint256",
          "name": "index",
          "type": "uint256"
        }
      ],
      "name": "tokenOfOwnerByIndex",
      "outputs": [
        {
          "internalType": "uint256",
          "name": "",
          "type": "uint256"
        }
      ],
      "stateMutability": "view",
      "type": "function"
    },
    {
      "inputs": [
        {
          "internalType": "uint256",
          "name": "tokenId",
          "type": "uint256"
        }
      ],
      "name": "tokenURI",
      "outputs": [
        {
          "internalType": "string",
          "name": "",
          "type": "string"
        }
      ],
      "stateMutability": "view",
      "type": "function"
    },
    {
      "inputs": [],
      "name": "totalSupply",
      "outputs": [
        {
          "internalType": "uint256",
          "name": "",
          "type": "uint256"
        }
      ],
      "stateMutability": "view",
      "type": "function"
    },
    {
      "inputs": [
        {
          "internalType": "address",
          "name": "from",
          "type": "address"
        },
        {
          "internalType": "address",
          "name": "to",
          "type": "address"
        },
        {
          "internalType": "uint256",
          "name": "tokenId",
          "type": "uint256"
        }
      ],
      "name": "transferFrom",
      "outputs": [],
      "stateMutability": "nonpayable",
      "type": "function"
    },
    {
      "inputs": [
        {
          "internalType": "address",
          "name": "newOwner",
          "type": "address"
        }
      ],
      "name": "transferOwnership",
      "outputs": [],
      "stateMutability": "nonpayable",
      "type": "function"
    },
    {
      "inputs": [
        {
          "internalType": "address",
          "name": "to",
          "type": "address"
        },
        {
          "internalType": "uint256",
          "name": "tokenId",
          "type": "uint256"
        }
      ],
      "name": "mint",
      "outputs": [
        {
          "internalType": "bool",
          "name": "",
          "type": "bool"
        }
      ],
      "stateMutability": "nonpayable",
      "type": "function"
    }
  ],
  "bytecode": "0x60806040526040518060600160405280603f81526020016200370e603f9139600e90816200002e919062000586565b503480156200003c57600080fd5b506040516200374d3803806200374d8339818101604052810190620000629190620007d1565b8181600e8054620000739062000375565b80601f0160208091040260200160405190810160405280929190818152602001828054620000a19062000375565b8015620000f25780601f10620000c657610100808354040283529160200191620000f2565b820191906000526020600020905b815481529060010190602001808311620000d457829003601f168201915b5050505050336000806101000a81548173ffffffffffffffffffffffffffffffffffffffff021916908373ffffffffffffffffffffffffffffffffffffffff16021790555060008054906101000a900473ffffffffffffffffffffffffffffffffffffffff1673ffffffffffffffffffffffffffffffffffffffff16600073ffffffffffffffffffffffffffffffffffffffff167f8be0079c531659141344cd1fd0a4f28419497f9722a3daafe3b4186f6b6457e060405160405180910390a360008060146101000a81548160ff021916908315150217905550620001e46301ffc9a760e01b6200026d60201b60201c565b620001fc6380ac58cd60e01b6200026d60201b60201c565b6200021463780e9d6360e01b6200026d60201b60201c565b82600a908162000225919062000586565b5081600b908162000237919062000586565b5080600c908162000249919062000586565b5062000262635b5e139f60e01b6200026d60201b60201c565b505050505062000856565b63ffffffff60e01b817bffffffffffffffffffffffffffffffffffffffffffffffffffffffff191603620002a057600080fd5b6001806000837bffffffffffffffffffffffffffffffffffffffffffffffffffffffff19167bffffffffffffffffffffffffffffffffffffffffffffffffffffffff1916815260200190815260200160002060006101000a81548160ff02191690831515021790555050565b600081519050919050565b7f4e487b7100000000000000000000000000000000000000000000000000000000600052604160045260246000fd5b7f4e487b7100000000000000000000000000000000000000000000000000000000600052602260045260246000fd5b600060028204905060018216806200038e57607f821691505b602082108103620003a457620003a362000346565b5b50919050565b60008190508160005260206000209050919050565b60006020601f8301049050919050565b600082821b905092915050565b6000600883026200040e7fffffffffffffffffffffffffffffffffffffffffffffffffffffffffffffffff82620003cf565b6200041a8683620003cf565b95508019841693508086168417925050509392505050565b6000819050919050565b6000819050919050565b600062000467620004616200045b8462000432565b6200043c565b62000432565b9050919050565b6000819050919050565b620004838362000446565b6200049b62000492826200046e565b848454620003dc565b825550505050565b600090565b620004b2620004a3565b620004bf81848462000478565b505050565b5b81811015620004e757620004db600082620004a8565b600181019050620004c5565b5050565b601f82111562000536576200050081620003aa565b6200050b84620003bf565b810160208510156200051b578190505b620005336200052a85620003bf565b830182620004c4565b50505b505050565b600082821c905092915050565b60006200055b600019846008026200053b565b1980831691505092915050565b600062000576838362000548565b9150826002028217905092915050565b62000591826200030c565b67ffffffffffffffff811115620005ad57620005ac62000317565b5b620005b9825462000375565b620005c6828285620004eb565b600060209050601f831160018114620005fe5760008415620005e9578287015190505b620005f5858262000568565b86555062000665565b601f1984166200060e86620003aa565b60005b82811015620006385784890151825560018201915060208501945060208101905062000611565b8683101562000658578489015162000654601f89168262000548565b8355505b6001600288020188555050505b505050505050565b6000604051905090565b600080fd5b600080fd5b600080fd5b600080fd5b6000601f19601f8301169050919050565b620006a7826200068b565b810181811067ffffffffffffffff82111715620006c957620006c862000317565b5b80604052505050565b6000620006de6200066d565b9050620006ec82826200069c565b919050565b600067ffffffffffffffff8211156200070f576200070e62000317565b5b6200071a826200068b565b9050602081019050919050565b60005b83811015620007475780820151818401526020810190506200072a565b60008484015250505050565b60006200076a6200076484620006f1565b620006d2565b90508281526020810184848401111562000789576200078862000686565b5b6200079684828562000727565b509392505050565b600082601f830112620007b657620007b562000681565b5b8151620007c884826020860162000753565b91505092915050565b60008060408385031215620007eb57620007ea62000677565b5b600083015167ffffffffffffffff8111156200080c576200080b6200067c565b5b6200081a858286016200079e565b925050602083015167ffffffffffffffff8111156200083e576200083d6200067c565b5b6200084c858286016200079e565b9150509250929050565b612ea880620008666000396000f3fe608060405234801561001057600080fd5b50600436106101375760003560e01c80634f6ccce7116100b8578063a22cb4651161007c578063a22cb46514610374578063b88d4fde14610390578063c87b56dd146103ac578063d547cfb7146103dc578063e985e9c5146103fa578063f2fde38b1461042a57610137565b80634f6ccce7146102a85780636352211e146102d857806370a08231146103085780638da5cb5b1461033857806395d89b411461035657610137565b806318160ddd116100ff57806318160ddd146101f257806323b872dd146102105780632f745c591461022c57806340c10f191461025c57806342842e0e1461028c57610137565b806301ffc9a71461013c57806306fdde031461016c578063081812fc1461018a578063095ea7b3146101ba57806316c38b3c146101d6575b600080fd5b61015660048036038101906101519190611ec7565b610446565b6040516101639190611f0f565b60405180910390f35b6101746104ae565b6040516101819190611fba565b60405180910390f35b6101a4600480360381019061019f9190612012565b610540565b6040516101b19190612080565b60405180910390f35b6101d460048036038101906101cf91906120c7565b6105c5565b005b6101f060048036038101906101eb9190612133565b610771565b005b6101fa61081c565b604051610207919061216f565b60405180910390f35b61022a6004803603810190610225919061218a565b610829565b005b610246600480360381019061024191906120c7565b61084c565b604051610253919061216f565b60405180910390f35b610276600480360381019061027191906120c7565b6108c6565b6040516102839190611f0f565b60405180910390f35b6102a660048036038101906102a1919061218a565b610974565b005b6102c260048036038101906102bd9190612012565b610994565b6040516102cf919061216f565b60405180910390f35b6102f260048036038101906102ed9190612012565b6109cf565b6040516102ff9190612080565b60405180910390f35b610322600480360381019061031d91906121dd565b610a0c565b60405161032f919061216f565b60405180910390f35b610340610a5c565b60405161034d9190612080565b60405180910390f35b61035e610a85565b60405161036b9190611fba565b60405180910390f35b61038e6004803603810190610389919061220a565b610b17565b005b6103aa60048036038101906103a5919061237f565b610c4c565b005b6103c660048036038101906103c19190612012565b610c72565b6040516103d39190611fba565b60405180910390f35b6103e4610d29565b6040516103f19190611fba565b60405180910390f35b610414600480360381019061040f9190612402565b610dbb565b6040516104219190611f0f565b60405180910390f35b610444600480360381019061043f91906121dd565b610e4f565b005b600060016000837bffffffffffffffffffffffffffffffffffffffffffffffffffffffff19167bffffffffffffffffffffffffffffffffffffffffffffffffffffffff1916815260200190815260200160002060009054906101000a900460ff169050919050565b6060600a80546104bd90612471565b80601f01602080910402602001604051908101604052809291908181526020018280546104e990612471565b80156105365780601f1061050b57610100808354040283529160200191610536565b820191906000526020600020905b81548152906001019060200180831161051957829003601f168201915b5050505050905090565b600061054b82611009565b61058a576040517f08c379a0000000000000000000000000000000000000000000000000000000008152600401610581906124ee565b60405180910390fd5b6003600083815260200190815260200160002060009054906101000a900473ffffffffffffffffffffffffffffffffffffffff169050919050565b60006105d0826109cf565b90508073ffffffffffffffffffffffffffffffffffffffff168373ffffffffffffffffffffffffffffffffffffffff1603610640576040517f08c379a00000000000000000000000000000000000000000000000000000000081526004016106379061255a565b60405180910390fd5b8073ffffffffffffffffffffffffffffffffffffffff163373ffffffffffffffffffffffffffffffffffffffff161480610680575061067f8133610dbb565b5b6106bf576040517f08c379a00000000000000000000000000000000000000000000000000000000081526004016106b6906125c6565b60405180910390fd5b826003600084815260200190815260200160002060006101000a81548173ffffffffffffffffffffffffffffffffffffffff021916908373ffffffffffffffffffffffffffffffffffffffff160217905550818373ffffffffffffffffffffffffffffffffffffffff168273ffffffffffffffffffffffffffffffffffffffff167f8c5be1e5ebec7d5bd14f71427d1e84f3dd0314c0f7b2291e5b200ac8c7c3b92560405160405180910390a4505050565b60008054906101000a900473ffffffffffffffffffffffffffffffffffffffff1673ffffffffffffffffffffffffffffffffffffffff163373ffffffffffffffffffffffffffffffffffffffff16146107ff576040517f08c379a00000000000000000000000000000000000000000000000000000000081526004016107f690612658565b60405180910390fd5b80600060146101000a81548160ff02191690831515021790555050565b6000600880549050905090565b610833338261107b565b61083c57600080fd5b610847838383611110565b505050565b600061085783610a0c565b821061086257600080fd5b600660008473ffffffffffffffffffffffffffffffffffffffff1673ffffffffffffffffffffffffffffffffffffffff16815260200190815260200160002082815481106108b3576108b2612678565b5b9060005260206000200154905092915050565b60008060009054906101000a900473ffffffffffffffffffffffffffffffffffffffff1673ffffffffffffffffffffffffffffffffffffffff163373ffffffffffffffffffffffffffffffffffffffff1614610957576040517f08c379a000000000000000000000000000000000000000000000000000000000815260040161094e90612658565b60405180910390fd5b6109618383611134565b61096a82611155565b6001905092915050565b61098f83838360405180602001604052806000815250610c4c565b505050565b600061099e61081c565b82106109a957600080fd5b600882815481106109bd576109bc612678565b5b90600052602060002001549050919050565b60006002600083815260200190815260200160002060009054906101000a900473ffffffffffffffffffffffffffffffffffffffff169050919050565b6000610a55600460008473ffffffffffffffffffffffffffffffffffffffff1673ffffffffffffffffffffffffffffffffffffffff168152602001908152602001600020611226565b9050919050565b60008060009054906101000a900473ffffffffffffffffffffffffffffffffffffffff16905090565b6060600b8054610a9490612471565b80601f0160208091040260200160405190810160405280929190818152602001828054610ac090612471565b8015610b0d5780601f10610ae257610100808354040283529160200191610b0d565b820191906000526020600020905b815481529060010190602001808311610af057829003601f168201915b5050505050905090565b3373ffffffffffffffffffffffffffffffffffffffff168273ffffffffffffffffffffffffffffffffffffffff1603610b4f57600080fd5b80600560003373ffffffffffffffffffffffffffffffffffffffff1673ffffffffffffffffffffffffffffffffffffffff16815260200190815260200160002060008473ffffffffffffffffffffffffffffffffffffffff1673ffffffffffffffffffffffffffffffffffffffff16815260200190815260200160002060006101000a81548160ff0219169083151502179055508173ffffffffffffffffffffffffffffffffffffffff163373ffffffffffffffffffffffffffffffffffffffff167f17307eab39ab6107e8899845ad3d59bd9653f200f220920489ca2b5937696c3183604051610c409190611f0f565b60405180910390a35050565b610c57848484610829565b610c6384848484611234565b610c6c57600080fd5b50505050565b6060610c7d82611009565b610c8657600080fd5b600d60008381526020019081526020016000208054610ca490612471565b80601f0160208091040260200160405190810160405280929190818152602001828054610cd090612471565b8015610d1d5780601f10610cf257610100808354040283529160200191610d1d565b820191906000526020600020905b815481529060010190602001808311610d0057829003601f168201915b50505050509050919050565b6060600c8054610d3890612471565b80601f0160208091040260200160405190810160405280929190818152602001828054610d6490612471565b8015610db15780601f10610d8657610100808354040283529160200191610db1565b820191906000526020600020905b815481529060010190602001808311610d9457829003601f168201915b5050505050905090565b6000600560008473ffffffffffffffffffffffffffffffffffffffff1673ffffffffffffffffffffffffffffffffffffffff16815260200190815260200160002060008373ffffffffffffffffffffffffffffffffffffffff1673ffffffffffffffffffffffffffffffffffffffff16815260200190815260200160002060009054906101000a900460ff16905092915050565b60008054906101000a900473ffffffffffffffffffffffffffffffffffffffff1673ffffffffffffffffffffffffffffffffffffffff163373ffffffffffffffffffffffffffffffffffffffff1614610edd576040517f08c379a0000000000000000000000000000000000000000000000000000000008152600401610ed490612658565b60405180910390fd5b600073ffffffffffffffffffffffffffffffffffffffff168173ffffffffffffffffffffffffffffffffffffffff1603610f4c576040517f08c379a0000000000000000000000000000000000000000000000000000000008152600401610f4390612719565b60405180910390fd5b806000806101000a81548173ffffffffffffffffffffffffffffffffffffffff021916908373ffffffffffffffffffffffffffffffffffffffff1602179055508073ffffffffffffffffffffffffffffffffffffffff1660008054906101000a900473ffffffffffffffffffffffffffffffffffffffff1673ffffffffffffffffffffffffffffffffffffffff167f8be0079c531659141344cd1fd0a4f28419497f9722a3daafe3b4186f6b6457e060405160405180910390a350565b6000806002600084815260200190815260200160002060009054906101000a900473ffffffffffffffffffffffffffffffffffffffff169050600073ffffffffffffffffffffffffffffffffffffffff168173ffffffffffffffffffffffffffffffffffffffff161415915050919050565b600080611087836109cf565b90508073ffffffffffffffffffffffffffffffffffffffff168473ffffffffffffffffffffffffffffffffffffffff1614806110f657508373ffffffffffffffffffffffffffffffffffffffff166110de84610540565b73ffffffffffffffffffffffffffffffffffffffff16145b8061110757506111068185610dbb565b5b91505092915050565b61111b83838361133c565b611125838261156a565b61112f8282611739565b505050565b61113e82826117fd565b6111488282611739565b611151816119ae565b5050565b61115e81611009565b61116757600080fd5b611203600c805461117790612471565b80601f01602080910402602001604051908101604052809291908181526020018280546111a390612471565b80156111f05780601f106111c5576101008083540402835291602001916111f0565b820191906000526020600020905b8154815290600101906020018083116111d357829003601f168201915b50505050506111fe836119f7565b611b57565b600d6000838152602001908152602001600020908161122291906128e5565b5050565b600081600001549050919050565b60006112558473ffffffffffffffffffffffffffffffffffffffff16611cf2565b6112625760019050611334565b60008473ffffffffffffffffffffffffffffffffffffffff1663150b7a02338887876040518563ffffffff1660e01b81526004016112a39493929190612a0c565b6020604051808303816000875af11580156112c2573d6000803e3d6000fd5b505050506040513d601f19601f820116820180604052508101906112e69190612a6d565b905063150b7a0260e01b7bffffffffffffffffffffffffffffffffffffffffffffffffffffffff1916817bffffffffffffffffffffffffffffffffffffffffffffffffffffffff1916149150505b949350505050565b8273ffffffffffffffffffffffffffffffffffffffff1661135c826109cf565b73ffffffffffffffffffffffffffffffffffffffff16146113b2576040517f08c379a00000000000000000000000000000000000000000000000000000000081526004016113a990612b0c565b60405180910390fd5b600073ffffffffffffffffffffffffffffffffffffffff168273ffffffffffffffffffffffffffffffffffffffff1603611421576040517f08c379a000000000000000000000000000000000000000000000000000000000815260040161141890612b9e565b60405180910390fd5b61142a81611d15565b611471600460008573ffffffffffffffffffffffffffffffffffffffff1673ffffffffffffffffffffffffffffffffffffffff168152602001908152602001600020611dd3565b6114b8600460008473ffffffffffffffffffffffffffffffffffffffff1673ffffffffffffffffffffffffffffffffffffffff168152602001908152602001600020611e2f565b816002600083815260200190815260200160002060006101000a81548173ffffffffffffffffffffffffffffffffffffffff021916908373ffffffffffffffffffffffffffffffffffffffff160217905550808273ffffffffffffffffffffffffffffffffffffffff168473ffffffffffffffffffffffffffffffffffffffff167fddf252ad1be2c89b69c2b068fc378daa952ba7f163c4a11628f55a4df523b3ef60405160405180910390a4505050565b60006115c26001600660008673ffffffffffffffffffffffffffffffffffffffff1673ffffffffffffffffffffffffffffffffffffffff16815260200190815260200160002080549050611e4590919063ffffffff16565b90506000600760008481526020019081526020016000205490508181146116bd576000600660008673ffffffffffffffffffffffffffffffffffffffff1673ffffffffffffffffffffffffffffffffffffffff168152602001908152602001600020838154811061163657611635612678565b5b9060005260206000200154905080600660008773ffffffffffffffffffffffffffffffffffffffff1673ffffffffffffffffffffffffffffffffffffffff168152602001908152602001600020838154811061169557611694612678565b5b9060005260206000200181905550816007600083815260200190815260200160002081905550505b6007600084815260200190815260200160002060009055600660008573ffffffffffffffffffffffffffffffffffffffff1673ffffffffffffffffffffffffffffffffffffffff168152602001908152602001600020828154811061172557611724612678565b5b906000526020600020016000905550505050565b600660008373ffffffffffffffffffffffffffffffffffffffff1673ffffffffffffffffffffffffffffffffffffffff168152602001908152602001600020805490506007600083815260200190815260200160002081905550600660008373ffffffffffffffffffffffffffffffffffffffff1673ffffffffffffffffffffffffffffffffffffffff1681526020019081526020016000208190806001815401808255809150506001900390600052602060002001600090919091909150555050565b600073ffffffffffffffffffffffffffffffffffffffff168273ffffffffffffffffffffffffffffffffffffffff160361186c576040517f08c379a000000000000000000000000000000000000000000000000000000000815260040161186390612c0a565b60405180910390fd5b61187581611009565b156118b5576040517f08c379a00000000000000000000000000000000000000000000000000000000081526004016118ac90612c76565b60405180910390fd5b6118fc600460008473ffffffffffffffffffffffffffffffffffffffff1673ffffffffffffffffffffffffffffffffffffffff168152602001908152602001600020611e2f565b816002600083815260200190815260200160002060006101000a81548173ffffffffffffffffffffffffffffffffffffffff021916908373ffffffffffffffffffffffffffffffffffffffff160217905550808273ffffffffffffffffffffffffffffffffffffffff16600073ffffffffffffffffffffffffffffffffffffffff167fddf252ad1be2c89b69c2b068fc378daa952ba7f163c4a11628f55a4df523b3ef60405160405180910390a45050565b6008805490506009600083815260200190815260200160002081905550600881908060018154018082558091505060019003906000526020600020016000909190919091505550565b606060008203611a3e576040518060400160405280600181526020017f30000000000000000000000000000000000000000000000000000000000000008152509050611b52565b600082905060005b60008214611a70578080611a5990612cc5565b915050600a82611a699190612d3c565b9150611a46565b60008167ffffffffffffffff811115611a8c57611a8b612254565b5b6040519080825280601f01601f191660200182016040528015611abe5781602001600182028036833780820191505090505b5090505b60008514611b4b57600182611ad79190612d6d565b9150600a85611ae69190612da1565b6030611af29190612dd2565b60f81b818381518110611b0857611b07612678565b5b60200101907effffffffffffffffffffffffffffffffffffffffffffffffffffffffffffff1916908160001a905350600a85611b449190612d3c565b9450611ac2565b8093505050505b919050565b606060008390506000839050600081518351611b739190612dd2565b67ffffffffffffffff811115611b8c57611b8b612254565b5b6040519080825280601f01601f191660200182016040528015611bbe5781602001600182028036833780820191505090505b5090506000819050600080600090505b8551811015611c5657858181518110611bea57611be9612678565b5b602001015160f81c60f81b838380611c0190612cc5565b945081518110611c1457611c13612678565b5b60200101907effffffffffffffffffffffffffffffffffffffffffffffffffffffffffffff1916908160001a9053508080611c4e90612cc5565b915050611bce565b600090505b8451811015611ce357848181518110611c7757611c76612678565b5b602001015160f81c60f81b838380611c8e90612cc5565b945081518110611ca157611ca0612678565b5b60200101907effffffffffffffffffffffffffffffffffffffffffffffffffffffffffffff1916908160001a9053508080611cdb90612cc5565b915050611c5b565b82965050505050505092915050565b6000808273ffffffffffffffffffffffffffffffffffffffff163b119050919050565b600073ffffffffffffffffffffffffffffffffffffffff166003600083815260200190815260200160002060009054906101000a900473ffffffffffffffffffffffffffffffffffffffff1673ffffffffffffffffffffffffffffffffffffffff1614611dd05760006003600083815260200190815260200160002060006101000a81548173ffffffffffffffffffffffffffffffffffffffff021916908373ffffffffffffffffffffffffffffffffffffffff1602179055505b50565b60008160000154905060008111611e1f576040517f08c379a0000000000000000000000000000000000000000000000000000000008152600401611e1690612e52565b60405180910390fd5b6001810382600001819055505050565b6001816000016000828254019250508190555050565b60008183611e539190612d6d565b905092915050565b6000604051905090565b600080fd5b600080fd5b60007fffffffff0000000000000000000000000000000000000000000000000000000082169050919050565b611ea481611e6f565b8114611eaf57600080fd5b50565b600081359050611ec181611e9b565b92915050565b600060208284031215611edd57611edc611e65565b5b6000611eeb84828501611eb2565b91505092915050565b60008115159050919050565b611f0981611ef4565b82525050565b6000602082019050611f246000830184611f00565b92915050565b600081519050919050565b600082825260208201905092915050565b60005b83811015611f64578082015181840152602081019050611f49565b60008484015250505050565b6000601f19601f8301169050919050565b6000611f8c82611f2a565b611f968185611f35565b9350611fa6818560208601611f46565b611faf81611f70565b840191505092915050565b60006020820190508181036000830152611fd48184611f81565b905092915050565b6000819050919050565b611fef81611fdc565b8114611ffa57600080fd5b50565b60008135905061200c81611fe6565b92915050565b60006020828403121561202857612027611e65565b5b600061203684828501611ffd565b91505092915050565b600073ffffffffffffffffffffffffffffffffffffffff82169050919050565b600061206a8261203f565b9050919050565b61207a8161205f565b82525050565b60006020820190506120956000830184612071565b92915050565b6120a48161205f565b81146120af57600080fd5b50565b6000813590506120c18161209b565b92915050565b600080604083850312156120de576120dd611e65565b5b60006120ec858286016120b2565b92505060206120fd85828601611ffd565b9150509250929050565b61211081611ef4565b811461211b57600080fd5b50565b60008135905061212d81612107565b92915050565b60006020828403121561214957612148611e65565b5b60006121578482850161211e565b91505092915050565b61216981611fdc565b82525050565b60006020820190506121846000830184612160565b92915050565b6000806000606084860312156121a3576121a2611e65565b5b60006121b1868287016120b2565b93505060206121c2868287016120b2565b92505060406121d386828701611ffd565b9150509250925092565b6000602082840312156121f3576121f2611e65565b5b6000612201848285016120b2565b91505092915050565b6000806040838503121561222157612220611e65565b5b600061222f858286016120b2565b92505060206122408582860161211e565b9150509250929050565b600080fd5b600080fd5b7f4e487b7100000000000000000000000000000000000000000000000000000000600052604160045260246000fd5b61228c82611f70565b810181811067ffffffffffffffff821117156122ab576122aa612254565b5b80604052505050565b60006122be611e5b565b90506122ca8282612283565b919050565b600067ffffffffffffffff8211156122ea576122e9612254565b5b6122f382611f70565b9050602081019050919050565b82818337600083830152505050565b600061232261231d846122cf565b6122b4565b90508281526020810184848401111561233e5761233d61224f565b5b612349848285612300565b509392505050565b600082601f8301126123665761236561224a565b5b813561237684826020860161230f565b91505092915050565b6000806000806080858703121561239957612398611e65565b5b60006123a7878288016120b2565b94505060206123b8878288016120b2565b93505060406123c987828801611ffd565b925050606085013567ffffffffffffffff8111156123ea576123e9611e6a565b5b6123f687828801612351565b91505092959194509250565b6000806040838503121561241957612418611e65565b5b6000612427858286016120b2565b9250506020612438858286016120b2565b9150509250929050565b7f4e487b7100000000000000000000000000000000000000000000000000000000600052602260045260246000fd5b6000600282049050600182168061248957607f821691505b60208210810361249c5761249b612442565b5b50919050565b7f546f6b656e20646f6573206e6f74206578697374000000000000000000000000600082015250565b60006124d8601483611f35565b91506124e3826124a2565b602082019050919050565b60006020820190508181036000830152612507816124cb565b9050919050565b7f43616e6e6f7420617070726f766520746f6b656e20746f206f776e6572000000600082015250565b6000612544601d83611f35565b915061254f8261250e565b602082019050919050565b6000602082019050818103600083015261257381612537565b9050919050565b7f4e6f7420617574686f72697a656420746f20617070726f766520746f6b656e00600082015250565b60006125b0601f83611f35565b91506125bb8261257a565b602082019050919050565b600060208201905081810360008301526125df816125a3565b9050919050565b7f4f6e6c79206f776e65722063616e2063616c6c20746869732066756e6374696f60008201527f6e00000000000000000000000000000000000000000000000000000000000000602082015250565b6000612642602183611f35565b915061264d826125e6565b604082019050919050565b6000602082019050818103600083015261267181612635565b9050919050565b7f4e487b7100000000000000000000000000000000000000000000000000000000600052603260045260246000fd5b7f4e6577206f776e65722063616e6e6f7420626520746865207a65726f2061646460008201527f7265737300000000000000000000000000000000000000000000000000000000602082015250565b6000612703602483611f35565b915061270e826126a7565b604082019050919050565b60006020820190508181036000830152612732816126f6565b9050919050565b60008190508160005260206000209050919050565b60006020601f8301049050919050565b600082821b905092915050565b60006008830261279b7fffffffffffffffffffffffffffffffffffffffffffffffffffffffffffffffff8261275e565b6127a5868361275e565b95508019841693508086168417925050509392505050565b6000819050919050565b60006127e26127dd6127d884611fdc565b6127bd565b611fdc565b9050919050565b6000819050919050565b6127fc836127c7565b612810612808826127e9565b84845461276b565b825550505050565b600090565b612825612818565b6128308184846127f3565b505050565b5b818110156128545761284960008261281d565b600181019050612836565b5050565b601f8211156128995761286a81612739565b6128738461274e565b81016020851015612882578190505b61289661288e8561274e565b830182612835565b50505b505050565b600082821c905092915050565b60006128bc6000198460080261289e565b1980831691505092915050565b60006128d583836128ab565b9150826002028217905092915050565b6128ee82611f2a565b67ffffffffffffffff81111561290757612906612254565b5b6129118254612471565b61291c828285612858565b600060209050601f83116001811461294f576000841561293d578287015190505b61294785826128c9565b8655506129af565b601f19841661295d86612739565b60005b8281101561298557848901518255600182019150602085019450602081019050612960565b868310156129a2578489015161299e601f8916826128ab565b8355505b6001600288020188555050505b505050505050565b600081519050919050565b600082825260208201905092915050565b60006129de826129b7565b6129e881856129c2565b93506129f8818560208601611f46565b612a0181611f70565b840191505092915050565b6000608082019050612a216000830187612071565b612a2e6020830186612071565b612a3b6040830185612160565b8181036060830152612a4d81846129d3565b905095945050505050565b600081519050612a6781611e9b565b92915050565b600060208284031215612a8357612a82611e65565b5b6000612a9184828501612a58565b91505092915050565b7f4552433732313a207472616e73666572206f6620746f6b656e2074686174206960008201527f73206e6f74206f776e0000000000000000000000000000000000000000000000602082015250565b6000612af6602983611f35565b9150612b0182612a9a565b604082019050919050565b60006020820190508181036000830152612b2581612ae9565b9050919050565b7f4552433732313a207472616e7366657220746f20746865207a65726f2061646460008201527f7265737300000000000000000000000000000000000000000000000000000000602082015250565b6000612b88602483611f35565b9150612b9382612b2c565b604082019050919050565b60006020820190508181036000830152612bb781612b7b565b9050919050565b7f43616e6e6f74206d696e7420746f206164647265737320300000000000000000600082015250565b6000612bf4601883611f35565b9150612bff82612bbe565b602082019050919050565b60006020820190508181036000830152612c2381612be7565b9050919050565b7f546f6b656e20616c726561647920657869737473000000000000000000000000600082015250565b6000612c60601483611f35565b9150612c6b82612c2a565b602082019050919050565b60006020820190508181036000830152612c8f81612c53565b9050919050565b7f4e487b7100000000000000000000000000000000000000000000000000000000600052601160045260246000fd5b6000612cd082611fdc565b91507fffffffffffffffffffffffffffffffffffffffffffffffffffffffffffffffff8203612d0257612d01612c96565b5b600182019050919050565b7f4e487b7100000000000000000000000000000000000000000000000000000000600052601260045260246000fd5b6000612d4782611fdc565b9150612d5283611fdc565b925082612d6257612d61612d0d565b5b828204905092915050565b6000612d7882611fdc565b9150612d8383611fdc565b9250828203905081811115612d9b57612d9a612c96565b5b92915050565b6000612dac82611fdc565b9150612db783611fdc565b925082612dc757612dc6612d0d565b5b828206905092915050565b6000612ddd82611fdc565b9150612de883611fdc565b9250828201905080821115612e0057612dff612c96565b5b92915050565b7f436f756e7465723a2064656372656d656e74206f766572666c6f770000000000600082015250565b6000612e3c601b83611f35565b9150612e4782612e06565b602082019050919050565b60006020820190508181036000830152612e6b81612e2f565b905091905056fea264697066735822122083d5e945ea036b8ae96c8fb97056037dc15de153649470556a245819dda6604164736f6c6343000811003368747470733a2f2f73332d75732d776573742d322e616d617a6f6e6177732e636f6d2f756461636974792d626c6f636b636861696e2f63617073746f6e652f",
  "immutableReferences": {},
  "source": "//SPDX-License-Identifier: MIT\npragma solidity ^0.8.0;\n\nimport \"../node_modules/@openzeppelin/contracts/utils/Address.sol\";\nimport \"../node_modules/@openzeppelin/contracts/utils/Counters.sol\";\nimport \"../node_modules/@openzeppelin/contracts/utils/Strings.sol\";\nimport \"../node_modules/@openzeppelin/contracts/utils/math/SafeMath.sol\";\nimport \"../node_modules/@openzeppelin/contracts/token/ERC721/IERC721Receiver.sol\";\n\ncontract Ownable {\n    //  TODO's\n    //  1) create a private '_owner' variable of type address with a public getter function\n    //  2) create an internal constructor that sets the _owner var to the creater of the contract\n    //  3) create an 'onlyOwner' modifier that throws if called by any account other than the owner.\n    //  4) fill out the transferOwnership function\n    //  5) create an event that emits anytime ownerShip is transfered (including in the constructor)\n    address private _owner;\n\n    event OwnershipTransferred(\n        address indexed previousOwner,\n        address indexed newOwner\n    );\n\n    function owner() public view returns (address) {\n        return _owner;\n    }\n\n    constructor() {\n        _owner = msg.sender;\n        emit OwnershipTransferred(address(0), _owner);\n    }\n\n    modifier onlyOwner() {\n        require(msg.sender == _owner, \"Only owner can call this function\");\n        _;\n    }\n\n    function transferOwnership(address newOwner) public onlyOwner {\n        require(newOwner != address(0), \"New owner cannot be the zero address\");\n        _owner = newOwner;\n        emit OwnershipTransferred(_owner, newOwner);\n    }\n}\n\n//  TODO's: Create a Pausable contract that inherits from the Ownable contract\n//  1) create a private '_paused' variable of type bool\n//  2) create a public setter using the inherited onlyOwner modifier\n//  3) create an internal constructor that sets the _paused variable to false\n//  4) create 'whenNotPaused' & 'paused' modifier that throws in the appropriate situation\n//  5) create a Paused & Unpaused event that emits the address that triggered the event\ncontract Pausable is Ownable {\n    bool private _paused;\n\n    event Paused(address indexed account);\n    event Unpaused(address indexed account);\n\n    function setPaused(bool value) public onlyOwner {\n        _paused = value;\n    }\n\n    constructor() {\n        _paused = false;\n    }\n\n    modifier whenNotPaused() {\n        require(_paused == false, \"Not allowed, contract is currently paused\");\n        _;\n    }\n\n    modifier paused() {\n        require(\n            _paused == true,\n            \"Not allowed, contract is currently not paused\"\n        );\n        _;\n    }\n}\n\ncontract ERC165 {\n    bytes4 private constant _INTERFACE_ID_ERC165 = 0x01ffc9a7;\n    /*\n     * 0x01ffc9a7 ===\n     *     bytes4(keccak256('supportsInterface(bytes4)'))\n     */\n\n    /**\n     * @dev a mapping of interface id to whether or not it's supported\n     */\n    mapping(bytes4 => bool) private _supportedInterfaces;\n\n    /**\n     * @dev A contract implementing SupportsInterfaceWithLookup\n     * implement ERC165 itself\n     */\n    constructor() {\n        _registerInterface(_INTERFACE_ID_ERC165);\n    }\n\n    /**\n     * @dev implement supportsInterface(bytes4) using a lookup table\n     */\n    function supportsInterface(bytes4 interfaceId)\n        external\n        view\n        returns (bool)\n    {\n        return _supportedInterfaces[interfaceId];\n    }\n\n    /**\n     * @dev internal method for registering an interface\n     */\n    function _registerInterface(bytes4 interfaceId) internal {\n        require(interfaceId != 0xffffffff);\n        _supportedInterfaces[interfaceId] = true;\n    }\n}\n\ncontract ERC721 is Pausable, ERC165 {\n    event Transfer(\n        address indexed from,\n        address indexed to,\n        uint256 indexed tokenId\n    );\n\n    event Approval(\n        address indexed owner,\n        address indexed approved,\n        uint256 indexed tokenId\n    );\n\n    event ApprovalForAll(\n        address indexed owner,\n        address indexed operator,\n        bool approved\n    );\n\n    using Strings for string;\n    using Address for address;\n    using SafeMath for uint256;\n    using Counters for Counters.Counter;\n\n    // Equals to `bytes4(keccak256(\"onERC721Received(address,address,uint256,bytes)\"))`\n    // which can be also obtained as `IERC721Receiver(0).onERC721Received.selector`\n    bytes4 private constant _ERC721_RECEIVED = 0x150b7a02;\n\n    // Mapping from token ID to owner\n    mapping(uint256 => address) private _tokenOwner;\n\n    // Mapping from token ID to approved address\n    mapping(uint256 => address) private _tokenApprovals;\n\n    // Mapping from owner to number of owned token\n    // IMPORTANT: this mapping uses Counters lib which is used to protect overflow when incrementing/decrementing a uint\n    // use the following functions when interacting with Counters: increment(), decrement(), and current() to get the value\n    // see: https://github.com/OpenZeppelin/openzeppelin-solidity/blob/master/contracts/drafts/Counters.sol\n    mapping(address => Counters.Counter) private _ownedTokensCount;\n\n    // Mapping from owner to operator approvals\n    mapping(address => mapping(address => bool)) private _operatorApprovals;\n\n    bytes4 private constant _INTERFACE_ID_ERC721 = 0x80ac58cd;\n\n    constructor() {\n        // register the supported interfaces to conform to ERC721 via ERC165\n        _registerInterface(_INTERFACE_ID_ERC721);\n    }\n\n    function balanceOf(address owner) public view returns (uint256) {\n        // TODO return the token balance of given address\n        // TIP: remember the functions to use for Counters. you can refresh yourself with the link above\n        return Counters.current(_ownedTokensCount[owner]);\n    }\n\n    function ownerOf(uint256 tokenId) public view returns (address) {\n        // TODO return the owner of the given tokenId\n        return _tokenOwner[tokenId];\n    }\n\n    //    @dev Approves another address to transfer the given token ID\n    function approve(address to, uint256 tokenId) public {\n        // TODO require the given address to not be the owner of the tokenId\n        // TODO require the msg sender to be the owner of the contract or isApprovedForAll() to be true\n        // TODO add 'to' address to token approvals\n        // TODO emit Approval Event\n        address owner = ownerOf(tokenId);\n        require(to != owner, \"Cannot approve token to owner\");\n        require(\n            msg.sender == owner || isApprovedForAll(owner, msg.sender),\n            \"Not authorized to approve token\"\n        );\n\n        _tokenApprovals[tokenId] = to;\n        emit Approval(owner, to, tokenId);\n    }\n\n    function getApproved(uint256 tokenId) public view returns (address) {\n        // TODO return token approval if it exists\n        require(_exists(tokenId), \"Token does not exist\");\n        return _tokenApprovals[tokenId];\n    }\n\n    /**\n     * @dev Sets or unsets the approval of a given operator\n     * An operator is allowed to transfer all tokens of the sender on their behalf\n     * @param to operator address to set the approval\n     * @param approved representing the status of the approval to be set\n     */\n    function setApprovalForAll(address to, bool approved) public {\n        require(to != msg.sender);\n        _operatorApprovals[msg.sender][to] = approved;\n        emit ApprovalForAll(msg.sender, to, approved);\n    }\n\n    /**\n     * @dev Tells whether an operator is approved by a given owner\n     * @param owner owner address which you want to query the approval of\n     * @param operator operator address which you want to query the approval of\n     * @return bool whether the given operator is approved by the given owner\n     */\n    function isApprovedForAll(address owner, address operator)\n        public\n        view\n        returns (bool)\n    {\n        return _operatorApprovals[owner][operator];\n    }\n\n    function transferFrom(\n        address from,\n        address to,\n        uint256 tokenId\n    ) public {\n        require(_isApprovedOrOwner(msg.sender, tokenId));\n\n        _transferFrom(from, to, tokenId);\n    }\n\n    function safeTransferFrom(\n        address from,\n        address to,\n        uint256 tokenId\n    ) public {\n        safeTransferFrom(from, to, tokenId, \"\");\n    }\n\n    function safeTransferFrom(\n        address from,\n        address to,\n        uint256 tokenId,\n        bytes memory _data\n    ) public {\n        transferFrom(from, to, tokenId);\n        require(_checkOnERC721Received(from, to, tokenId, _data));\n    }\n\n    /**\n     * @dev Returns whether the specified token exists\n     * @param tokenId uint256 ID of the token to query the existence of\n     * @return bool whether the token exists\n     */\n    function _exists(uint256 tokenId) internal view returns (bool) {\n        address owner = _tokenOwner[tokenId];\n        return owner != address(0);\n    }\n\n    /**\n     * @dev Returns whether the given spender can transfer a given token ID\n     * @param spender address of the spender to query\n     * @param tokenId uint256 ID of the token to be transferred\n     * @return bool whether the msg.sender is approved for the given token ID,\n     * is an operator of the owner, or is the owner of the token\n     */\n    function _isApprovedOrOwner(address spender, uint256 tokenId)\n        internal\n        view\n        returns (bool)\n    {\n        address owner = ownerOf(tokenId);\n        return (spender == owner ||\n            getApproved(tokenId) == spender ||\n            isApprovedForAll(owner, spender));\n    }\n\n    // @dev Internal function to mint a new token\n    // TIP: remember the functions to use for Counters. you can refresh yourself with the link above\n    function _mint(address to, uint256 tokenId) internal virtual {\n        // TODO revert if given tokenId already exists or given address is invalid\n        // TODO mint tokenId to given address & increase token count of owner\n        // TODO emit Transfer event\n\n        require(to != address(0), \"Cannot mint to address 0\");\n        require(!_exists(tokenId), \"Token already exists\");\n\n        Counters.increment(_ownedTokensCount[to]);\n        _tokenOwner[tokenId] = to;\n\n        emit Transfer(address(0), to, tokenId);\n    }\n\n    // @dev Internal function to transfer ownership of a given token ID to another address.\n    // TIP: remember the functions to use for Counters. you can refresh yourself with the link above\n    function _transferFrom(\n        address from,\n        address to,\n        uint256 tokenId\n    ) internal virtual {\n        // TODO: require from address is the owner of the given token\n        // TODO: require token is being transfered to valid address\n        // TODO: clear approval\n        // TODO: update token counts & transfer ownership of the token ID\n        // TODO: emit correct event\n\n        require(\n            ownerOf(tokenId) == from,\n            \"ERC721: transfer of token that is not own\"\n        );\n        require(to != address(0), \"ERC721: transfer to the zero address\");\n\n        _clearApproval(tokenId);\n\n        Counters.decrement(_ownedTokensCount[from]);\n        Counters.increment(_ownedTokensCount[to]);\n\n        _tokenOwner[tokenId] = to;\n\n        emit Transfer(from, to, tokenId);\n    }\n\n    /**\n     * @dev Internal function to invoke `onERC721Received` on a target address\n     * The call is not executed if the target address is not a contract\n     * @param from address representing the previous owner of the given token ID\n     * @param to target address that will receive the tokens\n     * @param tokenId uint256 ID of the token to be transferred\n     * @param _data bytes optional data to send along with the call\n     * @return bool whether the call correctly returned the expected magic value\n     */\n    function _checkOnERC721Received(\n        address from,\n        address to,\n        uint256 tokenId,\n        bytes memory _data\n    ) internal returns (bool) {\n        if (!to.isContract()) {\n            return true;\n        }\n\n        bytes4 retval = IERC721Receiver(to).onERC721Received(\n            msg.sender,\n            from,\n            tokenId,\n            _data\n        );\n        return (retval == _ERC721_RECEIVED);\n    }\n\n    // @dev Private function to clear current approval of a given token ID\n    function _clearApproval(uint256 tokenId) private {\n        if (_tokenApprovals[tokenId] != address(0)) {\n            _tokenApprovals[tokenId] = address(0);\n        }\n    }\n}\n\ncontract ERC721Enumerable is ERC165, ERC721 {\n    using SafeMath for uint256;\n\n    // Mapping from owner to list of owned token IDs\n    mapping(address => uint256[]) private _ownedTokens;\n\n    // Mapping from token ID to index of the owner tokens list\n    mapping(uint256 => uint256) private _ownedTokensIndex;\n\n    // Array with all token ids, used for enumeration\n    uint256[] private _allTokens;\n\n    // Mapping from token id to position in the allTokens array\n    mapping(uint256 => uint256) private _allTokensIndex;\n\n    bytes4 private constant _INTERFACE_ID_ERC721_ENUMERABLE = 0x780e9d63;\n\n    /*\n     * 0x780e9d63 ===\n     *     bytes4(keccak256('totalSupply()')) ^\n     *     bytes4(keccak256('tokenOfOwnerByIndex(address,uint256)')) ^\n     *     bytes4(keccak256('tokenByIndex(uint256)'))\n     */\n\n    /**\n     * @dev Constructor function\n     */\n    constructor() {\n        // register the supported interface to conform to ERC721Enumerable via ERC165\n        _registerInterface(_INTERFACE_ID_ERC721_ENUMERABLE);\n    }\n\n    /**\n     * @dev Gets the token ID at a given index of the tokens list of the requested owner\n     * @param owner address owning the tokens list to be accessed\n     * @param index uint256 representing the index to be accessed of the requested tokens list\n     * @return uint256 token ID at the given index of the tokens list owned by the requested address\n     */\n    function tokenOfOwnerByIndex(address owner, uint256 index)\n        public\n        view\n        returns (uint256)\n    {\n        require(index < balanceOf(owner));\n        return _ownedTokens[owner][index];\n    }\n\n    /**\n     * @dev Gets the total amount of tokens stored by the contract\n     * @return uint256 representing the total amount of tokens\n     */\n    function totalSupply() public view returns (uint256) {\n        return _allTokens.length;\n    }\n\n    /**\n     * @dev Gets the token ID at a given index of all the tokens in this contract\n     * Reverts if the index is greater or equal to the total number of tokens\n     * @param index uint256 representing the index to be accessed of the tokens list\n     * @return uint256 token ID at the given index of the tokens list\n     */\n    function tokenByIndex(uint256 index) public view returns (uint256) {\n        require(index < totalSupply());\n        return _allTokens[index];\n    }\n\n    /**\n     * @dev Internal function to transfer ownership of a given token ID to another address.\n     * As opposed to transferFrom, this imposes no restrictions on msg.sender.\n     * @param from current owner of the token\n     * @param to address to receive the ownership of the given token ID\n     * @param tokenId uint256 ID of the token to be transferred\n     */\n    function _transferFrom(\n        address from,\n        address to,\n        uint256 tokenId\n    ) internal override {\n        super._transferFrom(from, to, tokenId);\n\n        _removeTokenFromOwnerEnumeration(from, tokenId);\n\n        _addTokenToOwnerEnumeration(to, tokenId);\n    }\n\n    /**\n     * @dev Internal function to mint a new token\n     * Reverts if the given token ID already exists\n     * @param to address the beneficiary that will own the minted token\n     * @param tokenId uint256 ID of the token to be minted\n     */\n    function _mint(address to, uint256 tokenId) internal override {\n        super._mint(to, tokenId);\n\n        _addTokenToOwnerEnumeration(to, tokenId);\n\n        _addTokenToAllTokensEnumeration(tokenId);\n    }\n\n    /**\n     * @dev Gets the list of token IDs of the requested owner\n     * @param owner address owning the tokens\n     * @return uint256[] List of token IDs owned by the requested address\n     */\n    function _tokensOfOwner(address owner)\n        internal\n        view\n        returns (uint256[] storage)\n    {\n        return _ownedTokens[owner];\n    }\n\n    /**\n     * @dev Private function to add a token to this extension's ownership-tracking data structures.\n     * @param to address representing the new owner of the given token ID\n     * @param tokenId uint256 ID of the token to be added to the tokens list of the given address\n     */\n    function _addTokenToOwnerEnumeration(address to, uint256 tokenId) private {\n        _ownedTokensIndex[tokenId] = _ownedTokens[to].length;\n        _ownedTokens[to].push(tokenId);\n    }\n\n    /**\n     * @dev Private function to add a token to this extension's token tracking data structures.\n     * @param tokenId uint256 ID of the token to be added to the tokens list\n     */\n    function _addTokenToAllTokensEnumeration(uint256 tokenId) private {\n        _allTokensIndex[tokenId] = _allTokens.length;\n        _allTokens.push(tokenId);\n    }\n\n    /**\n     * @dev Private function to remove a token from this extension's ownership-tracking data structures. Note that\n     * while the token is not assigned a new owner, the _ownedTokensIndex mapping is _not_ updated: this allows for\n     * gas optimizations e.g. when performing a transfer operation (avoiding double writes).\n     * This has O(1) time complexity, but alters the order of the _ownedTokens array.\n     * @param from address representing the previous owner of the given token ID\n     * @param tokenId uint256 ID of the token to be removed from the tokens list of the given address\n     */\n    function _removeTokenFromOwnerEnumeration(address from, uint256 tokenId)\n        private\n    {\n        // To prevent a gap in from's tokens array, we store the last token in the index of the token to delete, and\n        // then delete the last slot (swap and pop).\n\n        uint256 lastTokenIndex = _ownedTokens[from].length.sub(1);\n        uint256 tokenIndex = _ownedTokensIndex[tokenId];\n\n        // When the token to delete is the last token, the swap operation is unnecessary\n        if (tokenIndex != lastTokenIndex) {\n            uint256 lastTokenId = _ownedTokens[from][lastTokenIndex];\n\n            _ownedTokens[from][tokenIndex] = lastTokenId; // Move the last token to the slot of the to-delete token\n            _ownedTokensIndex[lastTokenId] = tokenIndex; // Update the moved token's index\n        }\n\n        // This also deletes the contents at the last position of the array\n        delete _ownedTokensIndex[tokenId];\n        delete _ownedTokens[from][lastTokenIndex];\n\n        // Note that _ownedTokensIndex[tokenId] hasn't been cleared: it still points to the old slot (now occupied by\n        // lastTokenId, or just over the end of the array if the token was the last one).\n    }\n\n    /**\n     * @dev Private function to remove a token from this extension's token tracking data structures.\n     * This has O(1) time complexity, but alters the order of the _allTokens array.\n     * @param tokenId uint256 ID of the token to be removed from the tokens list\n     */\n    function _removeTokenFromAllTokensEnumeration(uint256 tokenId) private {\n        // To prevent a gap in the tokens array, we store the last token in the index of the token to delete, and\n        // then delete the last slot (swap and pop).\n\n        uint256 lastTokenIndex = _allTokens.length.sub(1);\n        uint256 tokenIndex = _allTokensIndex[tokenId];\n\n        // When the token to delete is the last token, the swap operation is unnecessary. However, since this occurs so\n        // rarely (when the last minted token is burnt) that we still do the swap here to avoid the gas cost of adding\n        // an 'if' statement (like in _removeTokenFromOwnerEnumeration)\n        uint256 lastTokenId = _allTokens[lastTokenIndex];\n\n        _allTokens[tokenIndex] = lastTokenId; // Move the last token to the slot of the to-delete token\n        _allTokensIndex[lastTokenId] = tokenIndex; // Update the moved token's index\n\n        // This also deletes the contents at the last position of the array\n        delete _allTokensIndex[tokenId];\n        _allTokens.pop();\n    }\n}\n\ncontract ERC721Metadata is ERC721Enumerable {\n    // TODO: Create private vars for token _name, _symbol, and _baseTokenURI (string)\n    string private _name;\n    string private _symbol;\n    string private _baseTokenURI;\n\n    // TODO: create private mapping of tokenId's to token uri's called '_tokenURIs'\n\n    mapping(uint256 => string) private _tokenURIs;\n\n    bytes4 private constant _INTERFACE_ID_ERC721_METADATA = 0x5b5e139f;\n\n    /*\n     * 0x5b5e139f ===\n     *     bytes4(keccak256('name()')) ^\n     *     bytes4(keccak256('symbol()')) ^\n     *     bytes4(keccak256('tokenURI(uint256)'))\n     */\n\n    constructor(\n        string memory name_,\n        string memory symbol_,\n        string memory baseTokenURI_\n    ) {\n        // TODO: set instance var values\n        _name = name_;\n        _symbol = symbol_;\n        _baseTokenURI = baseTokenURI_;\n\n        _registerInterface(_INTERFACE_ID_ERC721_METADATA);\n    }\n\n    // TODO: create external getter functions for name, symbol, and baseTokenURI\n    function name() external view returns (string memory) {\n        return _name;\n    }\n\n    function symbol() external view returns (string memory) {\n        return _symbol;\n    }\n\n    function baseTokenURI() external view returns (string memory) {\n        return _baseTokenURI;\n    }\n\n    function tokenURI(uint256 tokenId) external view returns (string memory) {\n        require(_exists(tokenId));\n        return _tokenURIs[tokenId];\n    }\n\n    // TODO: Create an internal function to set the tokenURI of a specified tokenId\n    // It should be the _baseTokenURI + the tokenId in string form\n    // TIP #1: use strConcat() from the imported oraclizeAPI lib to set the complete token URI\n    // TIP #2: you can also use uint2str() to convert a uint to a string\n    // see https://github.com/oraclize/ethereum-api/blob/master/oraclizeAPI_0.5.sol for strConcat()\n    // require the token exists before setting\n    function _strConcat(string memory _a, string memory _b)\n        internal\n        pure\n        returns (string memory _concatenatedString)\n    {\n        bytes memory _ba = bytes(_a);\n        bytes memory _bb = bytes(_b);\n\n        string memory ab = new string(_ba.length + _bb.length);\n        bytes memory bab = bytes(ab);\n\n        uint256 k = 0;\n        uint256 i = 0;\n        for (i = 0; i < _ba.length; i++) {\n            bab[k++] = _ba[i];\n        }\n        for (i = 0; i < _bb.length; i++) {\n            bab[k++] = _bb[i];\n        }\n\n        return string(bab);\n    }\n\n    function _setTokenURI(uint256 tokenId) internal {\n        require(_exists(tokenId));\n        _tokenURIs[tokenId] = _strConcat(\n            _baseTokenURI,\n            Strings.toString(tokenId)\n        );\n    }\n}\n\n//  TODO's: Create CustomERC721Token contract that inherits from the ERC721Metadata contract. You can name this contract as you please\n//  1) Pass in appropriate values for the inherited ERC721Metadata contract\n//      - make the base token uri: https://s3-us-west-2.amazonaws.com/udacity-blockchain/capstone/\n//  2) create a public mint() that does the following:\n//      -can only be executed by the contract owner\n//      -takes in a 'to' address, tokenId, and tokenURI as parameters\n//      -returns a true boolean upon completion of the function\n//      -calls the superclass mint and setTokenURI functions\n\ncontract CapstoneERC721Token is ERC721Metadata {\n    string private _baseTokenURI =\n        \"https://s3-us-west-2.amazonaws.com/udacity-blockchain/capstone/\";\n\n    constructor(string memory _name, string memory _symbol)\n        ERC721Metadata(_name, _symbol, _baseTokenURI)\n    {}\n\n    function mint(address to, uint256 tokenId) public onlyOwner returns (bool) {\n        super._mint(to, tokenId);\n        _setTokenURI(tokenId);\n        return true;\n    }\n}\n",
  "sourcePath": "/mnt/Data/Study/Udacity/Udacity-Capstone-Real-Estate-Marketplace-Project/contracts/ERC721Mintable.sol",
  "compiler": {
    "name": "solc",
    "version": "0.8.17+commit.8df45f5f.Emscripten.clang"
  },
  "schemaVersion": "3.4.9",
  "updatedAt": "2022-09-13T04:31:18.574Z",
  "devdoc": {
    "kind": "dev",
    "methods": {
      "isApprovedForAll(address,address)": {
        "details": "Tells whether an operator is approved by a given owner",
        "params": {
          "operator": "operator address which you want to query the approval of",
          "owner": "owner address which you want to query the approval of"
        },
        "returns": {
          "_0": "bool whether the given operator is approved by the given owner"
        }
      },
      "setApprovalForAll(address,bool)": {
        "details": "Sets or unsets the approval of a given operator An operator is allowed to transfer all tokens of the sender on their behalf",
        "params": {
          "approved": "representing the status of the approval to be set",
          "to": "operator address to set the approval"
        }
      },
      "supportsInterface(bytes4)": {
        "details": "implement supportsInterface(bytes4) using a lookup table"
      },
      "tokenByIndex(uint256)": {
        "details": "Gets the token ID at a given index of all the tokens in this contract Reverts if the index is greater or equal to the total number of tokens",
        "params": {
          "index": "uint256 representing the index to be accessed of the tokens list"
        },
        "returns": {
          "_0": "uint256 token ID at the given index of the tokens list"
        }
      },
      "tokenOfOwnerByIndex(address,uint256)": {
        "details": "Gets the token ID at a given index of the tokens list of the requested owner",
        "params": {
          "index": "uint256 representing the index to be accessed of the requested tokens list",
          "owner": "address owning the tokens list to be accessed"
        },
        "returns": {
          "_0": "uint256 token ID at the given index of the tokens list owned by the requested address"
        }
      },
      "totalSupply()": {
        "details": "Gets the total amount of tokens stored by the contract",
        "returns": {
          "_0": "uint256 representing the total amount of tokens"
        }
      }
    },
    "version": 1
  },
  "userdoc": {
    "kind": "user",
    "methods": {},
    "version": 1
  }
}