{
  "contractName": "SolnSquareVerifier",
  "abi": [
    {
      "inputs": [
        {
          "internalType": "address",
          "name": "_contractAddress",
          "type": "address"
        },
        {
          "internalType": "string",
          "name": "_name",
          "type": "string"
        },
        {
          "internalType": "string",
          "name": "_symbol",
          "type": "string"
        }
      ],
      "stateMutability": "nonpayable",
      "type": "constructor"
    },
    {
      "anonymous": false,
      "inputs": [
        {
          "indexed": true,
          "internalType": "address",
          "name": "owner",
          "type": "address"
        },
        {
          "indexed": true,
          "internalType": "address",
          "name": "approved",
          "type": "address"
        },
        {
          "indexed": true,
          "internalType": "uint256",
          "name": "tokenId",
          "type": "uint256"
        }
      ],
      "name": "Approval",
      "type": "event"
    },
    {
      "anonymous": false,
      "inputs": [
        {
          "indexed": true,
          "internalType": "address",
          "name": "owner",
          "type": "address"
        },
        {
          "indexed": true,
          "internalType": "address",
          "name": "operator",
          "type": "address"
        },
        {
          "indexed": false,
          "internalType": "bool",
          "name": "approved",
          "type": "bool"
        }
      ],
      "name": "ApprovalForAll",
      "type": "event"
    },
    {
      "anonymous": false,
      "inputs": [
        {
          "indexed": true,
          "internalType": "address",
          "name": "previousOwner",
          "type": "address"
        },
        {
          "indexed": true,
          "internalType": "address",
          "name": "newOwner",
          "type": "address"
        }
      ],
      "name": "OwnershipTransferred",
      "type": "event"
    },
    {
      "anonymous": false,
      "inputs": [
        {
          "indexed": true,
          "internalType": "address",
          "name": "account",
          "type": "address"
        }
      ],
      "name": "Paused",
      "type": "event"
    },
    {
      "anonymous": false,
      "inputs": [
        {
          "indexed": true,
          "internalType": "address",
          "name": "addr",
          "type": "address"
        },
        {
          "indexed": true,
          "internalType": "uint256",
          "name": "index",
          "type": "uint256"
        }
      ],
      "name": "SolutionAdded",
      "type": "event"
    },
    {
      "anonymous": false,
      "inputs": [
        {
          "indexed": true,
          "internalType": "address",
          "name": "from",
          "type": "address"
        },
        {
          "indexed": true,
          "internalType": "address",
          "name": "to",
          "type": "address"
        },
        {
          "indexed": true,
          "internalType": "uint256",
          "name": "tokenId",
          "type": "uint256"
        }
      ],
      "name": "Transfer",
      "type": "event"
    },
    {
      "anonymous": false,
      "inputs": [
        {
          "indexed": true,
          "internalType": "address",
          "name": "account",
          "type": "address"
        }
      ],
      "name": "Unpaused",
      "type": "event"
    },
    {
      "inputs": [
        {
          "internalType": "address",
          "name": "to",
          "type": "address"
        },
        {
          "internalType": "uint256",
          "name": "tokenId",
          "type": "uint256"
        }
      ],
      "name": "approve",
      "outputs": [],
      "stateMutability": "nonpayable",
      "type": "function"
    },
    {
      "inputs": [
        {
          "internalType": "address",
          "name": "owner",
          "type": "address"
        }
      ],
      "name": "balanceOf",
      "outputs": [
        {
          "internalType": "uint256",
          "name": "",
          "type": "uint256"
        }
      ],
      "stateMutability": "view",
      "type": "function",
      "constant": true
    },
    {
      "inputs": [],
      "name": "baseTokenURI",
      "outputs": [
        {
          "internalType": "string",
          "name": "",
          "type": "string"
        }
      ],
      "stateMutability": "view",
      "type": "function",
      "constant": true
    },
    {
      "inputs": [
        {
          "internalType": "uint256",
          "name": "tokenId",
          "type": "uint256"
        }
      ],
      "name": "getApproved",
      "outputs": [
        {
          "internalType": "address",
          "name": "",
          "type": "address"
        }
      ],
      "stateMutability": "view",
      "type": "function",
      "constant": true
    },
    {
      "inputs": [
        {
          "internalType": "address",
          "name": "owner",
          "type": "address"
        },
        {
          "internalType": "address",
          "name": "operator",
          "type": "address"
        }
      ],
      "name": "isApprovedForAll",
      "outputs": [
        {
          "internalType": "bool",
          "name": "",
          "type": "bool"
        }
      ],
      "stateMutability": "view",
      "type": "function",
      "constant": true
    },
    {
      "inputs": [
        {
          "internalType": "address",
          "name": "to",
          "type": "address"
        },
        {
          "internalType": "uint256",
          "name": "tokenId",
          "type": "uint256"
        }
      ],
      "name": "mint",
      "outputs": [
        {
          "internalType": "bool",
          "name": "",
          "type": "bool"
        }
      ],
      "stateMutability": "nonpayable",
      "type": "function"
    },
    {
      "inputs": [],
      "name": "name",
      "outputs": [
        {
          "internalType": "string",
          "name": "",
          "type": "string"
        }
      ],
      "stateMutability": "view",
      "type": "function",
      "constant": true
    },
    {
      "inputs": [],
      "name": "owner",
      "outputs": [
        {
          "internalType": "address",
          "name": "",
          "type": "address"
        }
      ],
      "stateMutability": "view",
      "type": "function",
      "constant": true
    },
    {
      "inputs": [
        {
          "internalType": "uint256",
          "name": "tokenId",
          "type": "uint256"
        }
      ],
      "name": "ownerOf",
      "outputs": [
        {
          "internalType": "address",
          "name": "",
          "type": "address"
        }
      ],
      "stateMutability": "view",
      "type": "function",
      "constant": true
    },
    {
      "inputs": [
        {
          "internalType": "address",
          "name": "from",
          "type": "address"
        },
        {
          "internalType": "address",
          "name": "to",
          "type": "address"
        },
        {
          "internalType": "uint256",
          "name": "tokenId",
          "type": "uint256"
        }
      ],
      "name": "safeTransferFrom",
      "outputs": [],
      "stateMutability": "nonpayable",
      "type": "function"
    },
    {
      "inputs": [
        {
          "internalType": "address",
          "name": "from",
          "type": "address"
        },
        {
          "internalType": "address",
          "name": "to",
          "type": "address"
        },
        {
          "internalType": "uint256",
          "name": "tokenId",
          "type": "uint256"
        },
        {
          "internalType": "bytes",
          "name": "_data",
          "type": "bytes"
        }
      ],
      "name": "safeTransferFrom",
      "outputs": [],
      "stateMutability": "nonpayable",
      "type": "function"
    },
    {
      "inputs": [
        {
          "internalType": "address",
          "name": "to",
          "type": "address"
        },
        {
          "internalType": "bool",
          "name": "approved",
          "type": "bool"
        }
      ],
      "name": "setApprovalForAll",
      "outputs": [],
      "stateMutability": "nonpayable",
      "type": "function"
    },
    {
      "inputs": [
        {
          "internalType": "bool",
          "name": "value",
          "type": "bool"
        }
      ],
      "name": "setPaused",
      "outputs": [],
      "stateMutability": "nonpayable",
      "type": "function"
    },
    {
      "inputs": [
        {
          "internalType": "bytes4",
          "name": "interfaceId",
          "type": "bytes4"
        }
      ],
      "name": "supportsInterface",
      "outputs": [
        {
          "internalType": "bool",
          "name": "",
          "type": "bool"
        }
      ],
      "stateMutability": "view",
      "type": "function",
      "constant": true
    },
    {
      "inputs": [],
      "name": "symbol",
      "outputs": [
        {
          "internalType": "string",
          "name": "",
          "type": "string"
        }
      ],
      "stateMutability": "view",
      "type": "function",
      "constant": true
    },
    {
      "inputs": [
        {
          "internalType": "uint256",
          "name": "index",
          "type": "uint256"
        }
      ],
      "name": "tokenByIndex",
      "outputs": [
        {
          "internalType": "uint256",
          "name": "",
          "type": "uint256"
        }
      ],
      "stateMutability": "view",
      "type": "function",
      "constant": true
    },
    {
      "inputs": [
        {
          "internalType": "address",
          "name": "owner",
          "type": "address"
        },
        {
          "internalType": "uint256",
          "name": "index",
          "type": "uint256"
        }
      ],
      "name": "tokenOfOwnerByIndex",
      "outputs": [
        {
          "internalType": "uint256",
          "name": "",
          "type": "uint256"
        }
      ],
      "stateMutability": "view",
      "type": "function",
      "constant": true
    },
    {
      "inputs": [
        {
          "internalType": "uint256",
          "name": "tokenId",
          "type": "uint256"
        }
      ],
      "name": "tokenURI",
      "outputs": [
        {
          "internalType": "string",
          "name": "",
          "type": "string"
        }
      ],
      "stateMutability": "view",
      "type": "function",
      "constant": true
    },
    {
      "inputs": [],
      "name": "totalSupply",
      "outputs": [
        {
          "internalType": "uint256",
          "name": "",
          "type": "uint256"
        }
      ],
      "stateMutability": "view",
      "type": "function",
      "constant": true
    },
    {
      "inputs": [
        {
          "internalType": "address",
          "name": "from",
          "type": "address"
        },
        {
          "internalType": "address",
          "name": "to",
          "type": "address"
        },
        {
          "internalType": "uint256",
          "name": "tokenId",
          "type": "uint256"
        }
      ],
      "name": "transferFrom",
      "outputs": [],
      "stateMutability": "nonpayable",
      "type": "function"
    },
    {
      "inputs": [
        {
          "internalType": "address",
          "name": "newOwner",
          "type": "address"
        }
      ],
      "name": "transferOwnership",
      "outputs": [],
      "stateMutability": "nonpayable",
      "type": "function"
    },
    {
      "inputs": [
        {
          "components": [
            {
              "internalType": "address",
              "name": "addr",
              "type": "address"
            },
            {
              "internalType": "uint256",
              "name": "index",
              "type": "uint256"
            }
          ],
          "internalType": "struct SolnSquareVerifier.Solution",
          "name": "solution",
          "type": "tuple"
        }
      ],
      "name": "addSolution",
      "outputs": [],
      "stateMutability": "nonpayable",
      "type": "function"
    },
    {
      "inputs": [
        {
          "internalType": "uint256",
          "name": "tokenId",
          "type": "uint256"
        },
        {
          "internalType": "uint256[2]",
          "name": "a",
          "type": "uint256[2]"
        },
        {
          "internalType": "uint256[2][2]",
          "name": "b",
          "type": "uint256[2][2]"
        },
        {
          "internalType": "uint256[2]",
          "name": "c",
          "type": "uint256[2]"
        },
        {
          "internalType": "uint256[1]",
          "name": "input",
          "type": "uint256[1]"
        }
      ],
      "name": "mintNFT",
      "outputs": [],
      "stateMutability": "nonpayable",
      "type": "function"
    }
  ],
  "bytecode": "0x60806040526040518060600160405280603f8152602001620041ce603f9139600e90816200002e9190620005cc565b503480156200003c57600080fd5b506040516200420d3803806200420d83398181016040528101906200006291906200087c565b81818181600e80546200007590620003bb565b80601f0160208091040260200160405190810160405280929190818152602001828054620000a390620003bb565b8015620000f45780601f10620000c857610100808354040283529160200191620000f4565b820191906000526020600020905b815481529060010190602001808311620000d657829003601f168201915b5050505050336000806101000a81548173ffffffffffffffffffffffffffffffffffffffff021916908373ffffffffffffffffffffffffffffffffffffffff16021790555060008054906101000a900473ffffffffffffffffffffffffffffffffffffffff1673ffffffffffffffffffffffffffffffffffffffff16600073ffffffffffffffffffffffffffffffffffffffff167f8be0079c531659141344cd1fd0a4f28419497f9722a3daafe3b4186f6b6457e060405160405180910390a360008060146101000a81548160ff021916908315150217905550620001e66301ffc9a760e01b620002b360201b60201c565b620001fe6380ac58cd60e01b620002b360201b60201c565b6200021663780e9d6360e01b620002b360201b60201c565b82600a9081620002279190620005cc565b5081600b9081620002399190620005cc565b5080600c90816200024b9190620005cc565b5062000264635b5e139f60e01b620002b360201b60201c565b505050505082601160006101000a81548173ffffffffffffffffffffffffffffffffffffffff021916908373ffffffffffffffffffffffffffffffffffffffff16021790555050505062000916565b63ffffffff60e01b817bffffffffffffffffffffffffffffffffffffffffffffffffffffffff191603620002e657600080fd5b6001806000837bffffffffffffffffffffffffffffffffffffffffffffffffffffffff19167bffffffffffffffffffffffffffffffffffffffffffffffffffffffff1916815260200190815260200160002060006101000a81548160ff02191690831515021790555050565b600081519050919050565b7f4e487b7100000000000000000000000000000000000000000000000000000000600052604160045260246000fd5b7f4e487b7100000000000000000000000000000000000000000000000000000000600052602260045260246000fd5b60006002820490506001821680620003d457607f821691505b602082108103620003ea57620003e96200038c565b5b50919050565b60008190508160005260206000209050919050565b60006020601f8301049050919050565b600082821b905092915050565b600060088302620004547fffffffffffffffffffffffffffffffffffffffffffffffffffffffffffffffff8262000415565b62000460868362000415565b95508019841693508086168417925050509392505050565b6000819050919050565b6000819050919050565b6000620004ad620004a7620004a18462000478565b62000482565b62000478565b9050919050565b6000819050919050565b620004c9836200048c565b620004e1620004d882620004b4565b84845462000422565b825550505050565b600090565b620004f8620004e9565b62000505818484620004be565b505050565b5b818110156200052d5762000521600082620004ee565b6001810190506200050b565b5050565b601f8211156200057c576200054681620003f0565b620005518462000405565b8101602085101562000561578190505b62000579620005708562000405565b8301826200050a565b50505b505050565b600082821c905092915050565b6000620005a16000198460080262000581565b1980831691505092915050565b6000620005bc83836200058e565b9150826002028217905092915050565b620005d78262000352565b67ffffffffffffffff811115620005f357620005f26200035d565b5b620005ff8254620003bb565b6200060c82828562000531565b600060209050601f8311600181146200064457600084156200062f578287015190505b6200063b8582620005ae565b865550620006ab565b601f1984166200065486620003f0565b60005b828110156200067e5784890151825560018201915060208501945060208101905062000657565b868310156200069e57848901516200069a601f8916826200058e565b8355505b6001600288020188555050505b505050505050565b6000604051905090565b600080fd5b600080fd5b600073ffffffffffffffffffffffffffffffffffffffff82169050919050565b6000620006f482620006c7565b9050919050565b6200070681620006e7565b81146200071257600080fd5b50565b6000815190506200072681620006fb565b92915050565b600080fd5b600080fd5b6000601f19601f8301169050919050565b620007528262000736565b810181811067ffffffffffffffff821117156200077457620007736200035d565b5b80604052505050565b600062000789620006b3565b905062000797828262000747565b919050565b600067ffffffffffffffff821115620007ba57620007b96200035d565b5b620007c58262000736565b9050602081019050919050565b60005b83811015620007f2578082015181840152602081019050620007d5565b60008484015250505050565b6000620008156200080f846200079c565b6200077d565b90508281526020810184848401111562000834576200083362000731565b5b62000841848285620007d2565b509392505050565b600082601f8301126200086157620008606200072c565b5b815162000873848260208601620007fe565b91505092915050565b600080600060608486031215620008985762000897620006bd565b5b6000620008a88682870162000715565b935050602084015167ffffffffffffffff811115620008cc57620008cb620006c2565b5b620008da8682870162000849565b925050604084015167ffffffffffffffff811115620008fe57620008fd620006c2565b5b6200090c8682870162000849565b9150509250925092565b6138a880620009266000396000f3fe608060405234801561001057600080fd5b506004361061014d5760003560e01c80635bdde9e3116100c3578063b88d4fde1161007c578063b88d4fde146103c2578063c87b56dd146103de578063d547cfb71461040e578063e985e9c51461042c578063ee697cd01461045c578063f2fde38b146104785761014d565b80635bdde9e3146102ee5780636352211e1461030a57806370a082311461033a5780638da5cb5b1461036a57806395d89b4114610388578063a22cb465146103a65761014d565b806318160ddd1161011557806318160ddd1461020857806323b872dd146102265780632f745c591461024257806340c10f191461027257806342842e0e146102a25780634f6ccce7146102be5761014d565b806301ffc9a71461015257806306fdde0314610182578063081812fc146101a0578063095ea7b3146101d057806316c38b3c146101ec575b600080fd5b61016c60048036038101906101679190612222565b610494565b604051610179919061226a565b60405180910390f35b61018a6104fc565b6040516101979190612315565b60405180910390f35b6101ba60048036038101906101b5919061236d565b61058e565b6040516101c791906123db565b60405180910390f35b6101ea60048036038101906101e59190612422565b610613565b005b6102066004803603810190610201919061248e565b6107bf565b005b61021061086a565b60405161021d91906124ca565b60405180910390f35b610240600480360381019061023b91906124e5565b610877565b005b61025c60048036038101906102579190612422565b61089a565b60405161026991906124ca565b60405180910390f35b61028c60048036038101906102879190612422565b610914565b604051610299919061226a565b60405180910390f35b6102bc60048036038101906102b791906124e5565b6109c2565b005b6102d860048036038101906102d3919061236d565b6109e2565b6040516102e591906124ca565b60405180910390f35b610308600480360381019061030391906127d0565b610a1d565b005b610324600480360381019061031f919061236d565b610bee565b60405161033191906123db565b60405180910390f35b610354600480360381019061034f919061284d565b610c2b565b60405161036191906124ca565b60405180910390f35b610372610c7b565b60405161037f91906123db565b60405180910390f35b610390610ca4565b60405161039d9190612315565b60405180910390f35b6103c060048036038101906103bb919061287a565b610d36565b005b6103dc60048036038101906103d7919061296f565b610e6b565b005b6103f860048036038101906103f3919061236d565b610e91565b6040516104059190612315565b60405180910390f35b610416610f48565b6040516104239190612315565b60405180910390f35b610446600480360381019061044191906129f2565b610fda565b604051610453919061226a565b60405180910390f35b61047660048036038101906104719190612a87565b61106e565b005b610492600480360381019061048d919061284d565b6111aa565b005b600060016000837bffffffffffffffffffffffffffffffffffffffffffffffffffffffff19167bffffffffffffffffffffffffffffffffffffffffffffffffffffffff1916815260200190815260200160002060009054906101000a900460ff169050919050565b6060600a805461050b90612ae3565b80601f016020809104026020016040519081016040528092919081815260200182805461053790612ae3565b80156105845780601f1061055957610100808354040283529160200191610584565b820191906000526020600020905b81548152906001019060200180831161056757829003601f168201915b5050505050905090565b600061059982611364565b6105d8576040517f08c379a00000000000000000000000000000000000000000000000000000000081526004016105cf90612b60565b60405180910390fd5b6003600083815260200190815260200160002060009054906101000a900473ffffffffffffffffffffffffffffffffffffffff169050919050565b600061061e82610bee565b90508073ffffffffffffffffffffffffffffffffffffffff168373ffffffffffffffffffffffffffffffffffffffff160361068e576040517f08c379a000000000000000000000000000000000000000000000000000000000815260040161068590612bcc565b60405180910390fd5b8073ffffffffffffffffffffffffffffffffffffffff163373ffffffffffffffffffffffffffffffffffffffff1614806106ce57506106cd8133610fda565b5b61070d576040517f08c379a000000000000000000000000000000000000000000000000000000000815260040161070490612c38565b60405180910390fd5b826003600084815260200190815260200160002060006101000a81548173ffffffffffffffffffffffffffffffffffffffff021916908373ffffffffffffffffffffffffffffffffffffffff160217905550818373ffffffffffffffffffffffffffffffffffffffff168273ffffffffffffffffffffffffffffffffffffffff167f8c5be1e5ebec7d5bd14f71427d1e84f3dd0314c0f7b2291e5b200ac8c7c3b92560405160405180910390a4505050565b60008054906101000a900473ffffffffffffffffffffffffffffffffffffffff1673ffffffffffffffffffffffffffffffffffffffff163373ffffffffffffffffffffffffffffffffffffffff161461084d576040517f08c379a000000000000000000000000000000000000000000000000000000000815260040161084490612cca565b60405180910390fd5b80600060146101000a81548160ff02191690831515021790555050565b6000600880549050905090565b61088133826113d6565b61088a57600080fd5b61089583838361146b565b505050565b60006108a583610c2b565b82106108b057600080fd5b600660008473ffffffffffffffffffffffffffffffffffffffff1673ffffffffffffffffffffffffffffffffffffffff168152602001908152602001600020828154811061090157610900612cea565b5b9060005260206000200154905092915050565b60008060009054906101000a900473ffffffffffffffffffffffffffffffffffffffff1673ffffffffffffffffffffffffffffffffffffffff163373ffffffffffffffffffffffffffffffffffffffff16146109a5576040517f08c379a000000000000000000000000000000000000000000000000000000000815260040161099c90612cca565b60405180910390fd5b6109af838361148f565b6109b8826114b0565b6001905092915050565b6109dd83838360405180602001604052806000815250610e6b565b505050565b60006109ec61086a565b82106109f757600080fd5b60088281548110610a0b57610a0a612cea565b5b90600052602060002001549050919050565b600073ffffffffffffffffffffffffffffffffffffffff166010600087815260200190815260200160002060000160009054906101000a900473ffffffffffffffffffffffffffffffffffffffff1673ffffffffffffffffffffffffffffffffffffffff1614610ac2576040517f08c379a0000000000000000000000000000000000000000000000000000000008152600401610ab990612d65565b60405180910390fd5b601160009054906101000a900473ffffffffffffffffffffffffffffffffffffffff1673ffffffffffffffffffffffffffffffffffffffff16638b5e19fe858585856040518563ffffffff1660e01b8152600401610b239493929190612fb2565b602060405180830381865afa158015610b40573d6000803e3d6000fd5b505050506040513d601f19601f82011682018060405250810190610b64919061300e565b610ba3576040517f08c379a0000000000000000000000000000000000000000000000000000000008152600401610b9a90613087565b60405180910390fd5b600060405180604001604052803373ffffffffffffffffffffffffffffffffffffffff168152602001878152509050610bdb8161106e565b610be53387610914565b50505050505050565b60006002600083815260200190815260200160002060009054906101000a900473ffffffffffffffffffffffffffffffffffffffff169050919050565b6000610c74600460008473ffffffffffffffffffffffffffffffffffffffff1673ffffffffffffffffffffffffffffffffffffffff168152602001908152602001600020611581565b9050919050565b60008060009054906101000a900473ffffffffffffffffffffffffffffffffffffffff16905090565b6060600b8054610cb390612ae3565b80601f0160208091040260200160405190810160405280929190818152602001828054610cdf90612ae3565b8015610d2c5780601f10610d0157610100808354040283529160200191610d2c565b820191906000526020600020905b815481529060010190602001808311610d0f57829003601f168201915b5050505050905090565b3373ffffffffffffffffffffffffffffffffffffffff168273ffffffffffffffffffffffffffffffffffffffff1603610d6e57600080fd5b80600560003373ffffffffffffffffffffffffffffffffffffffff1673ffffffffffffffffffffffffffffffffffffffff16815260200190815260200160002060008473ffffffffffffffffffffffffffffffffffffffff1673ffffffffffffffffffffffffffffffffffffffff16815260200190815260200160002060006101000a81548160ff0219169083151502179055508173ffffffffffffffffffffffffffffffffffffffff163373ffffffffffffffffffffffffffffffffffffffff167f17307eab39ab6107e8899845ad3d59bd9653f200f220920489ca2b5937696c3183604051610e5f919061226a565b60405180910390a35050565b610e76848484610877565b610e828484848461158f565b610e8b57600080fd5b50505050565b6060610e9c82611364565b610ea557600080fd5b600d60008381526020019081526020016000208054610ec390612ae3565b80601f0160208091040260200160405190810160405280929190818152602001828054610eef90612ae3565b8015610f3c5780601f10610f1157610100808354040283529160200191610f3c565b820191906000526020600020905b815481529060010190602001808311610f1f57829003601f168201915b50505050509050919050565b6060600c8054610f5790612ae3565b80601f0160208091040260200160405190810160405280929190818152602001828054610f8390612ae3565b8015610fd05780601f10610fa557610100808354040283529160200191610fd0565b820191906000526020600020905b815481529060010190602001808311610fb357829003601f168201915b5050505050905090565b6000600560008473ffffffffffffffffffffffffffffffffffffffff1673ffffffffffffffffffffffffffffffffffffffff16815260200190815260200160002060008373ffffffffffffffffffffffffffffffffffffffff1673ffffffffffffffffffffffffffffffffffffffff16815260200190815260200160002060009054906101000a900460ff16905092915050565b600081602001519050600f82908060018154018082558091505060019003906000526020600020906002020160009091909190915060008201518160000160006101000a81548173ffffffffffffffffffffffffffffffffffffffff021916908373ffffffffffffffffffffffffffffffffffffffff160217905550602082015181600101555050816010600083815260200190815260200160002060008201518160000160006101000a81548173ffffffffffffffffffffffffffffffffffffffff021916908373ffffffffffffffffffffffffffffffffffffffff1602179055506020820151816001015590505080826000015173ffffffffffffffffffffffffffffffffffffffff167f3a01cc868bdb36c1d9b8a262a8ad25064b23ac175b3f8e4453f1daf8ff6bac0d60405160405180910390a35050565b60008054906101000a900473ffffffffffffffffffffffffffffffffffffffff1673ffffffffffffffffffffffffffffffffffffffff163373ffffffffffffffffffffffffffffffffffffffff1614611238576040517f08c379a000000000000000000000000000000000000000000000000000000000815260040161122f90612cca565b60405180910390fd5b600073ffffffffffffffffffffffffffffffffffffffff168173ffffffffffffffffffffffffffffffffffffffff16036112a7576040517f08c379a000000000000000000000000000000000000000000000000000000000815260040161129e90613119565b60405180910390fd5b806000806101000a81548173ffffffffffffffffffffffffffffffffffffffff021916908373ffffffffffffffffffffffffffffffffffffffff1602179055508073ffffffffffffffffffffffffffffffffffffffff1660008054906101000a900473ffffffffffffffffffffffffffffffffffffffff1673ffffffffffffffffffffffffffffffffffffffff167f8be0079c531659141344cd1fd0a4f28419497f9722a3daafe3b4186f6b6457e060405160405180910390a350565b6000806002600084815260200190815260200160002060009054906101000a900473ffffffffffffffffffffffffffffffffffffffff169050600073ffffffffffffffffffffffffffffffffffffffff168173ffffffffffffffffffffffffffffffffffffffff161415915050919050565b6000806113e283610bee565b90508073ffffffffffffffffffffffffffffffffffffffff168473ffffffffffffffffffffffffffffffffffffffff16148061145157508373ffffffffffffffffffffffffffffffffffffffff166114398461058e565b73ffffffffffffffffffffffffffffffffffffffff16145b8061146257506114618185610fda565b5b91505092915050565b611476838383611697565b61148083826118c5565b61148a8282611a94565b505050565b6114998282611b58565b6114a38282611a94565b6114ac81611d09565b5050565b6114b981611364565b6114c257600080fd5b61155e600c80546114d290612ae3565b80601f01602080910402602001604051908101604052809291908181526020018280546114fe90612ae3565b801561154b5780601f106115205761010080835404028352916020019161154b565b820191906000526020600020905b81548152906001019060200180831161152e57829003601f168201915b505050505061155983611d52565b611eb2565b600d6000838152602001908152602001600020908161157d91906132e5565b5050565b600081600001549050919050565b60006115b08473ffffffffffffffffffffffffffffffffffffffff1661204d565b6115bd576001905061168f565b60008473ffffffffffffffffffffffffffffffffffffffff1663150b7a02338887876040518563ffffffff1660e01b81526004016115fe949392919061340c565b6020604051808303816000875af115801561161d573d6000803e3d6000fd5b505050506040513d601f19601f82011682018060405250810190611641919061346d565b905063150b7a0260e01b7bffffffffffffffffffffffffffffffffffffffffffffffffffffffff1916817bffffffffffffffffffffffffffffffffffffffffffffffffffffffff1916149150505b949350505050565b8273ffffffffffffffffffffffffffffffffffffffff166116b782610bee565b73ffffffffffffffffffffffffffffffffffffffff161461170d576040517f08c379a00000000000000000000000000000000000000000000000000000000081526004016117049061350c565b60405180910390fd5b600073ffffffffffffffffffffffffffffffffffffffff168273ffffffffffffffffffffffffffffffffffffffff160361177c576040517f08c379a00000000000000000000000000000000000000000000000000000000081526004016117739061359e565b60405180910390fd5b61178581612070565b6117cc600460008573ffffffffffffffffffffffffffffffffffffffff1673ffffffffffffffffffffffffffffffffffffffff16815260200190815260200160002061212e565b611813600460008473ffffffffffffffffffffffffffffffffffffffff1673ffffffffffffffffffffffffffffffffffffffff16815260200190815260200160002061218a565b816002600083815260200190815260200160002060006101000a81548173ffffffffffffffffffffffffffffffffffffffff021916908373ffffffffffffffffffffffffffffffffffffffff160217905550808273ffffffffffffffffffffffffffffffffffffffff168473ffffffffffffffffffffffffffffffffffffffff167fddf252ad1be2c89b69c2b068fc378daa952ba7f163c4a11628f55a4df523b3ef60405160405180910390a4505050565b600061191d6001600660008673ffffffffffffffffffffffffffffffffffffffff1673ffffffffffffffffffffffffffffffffffffffff168152602001908152602001600020805490506121a090919063ffffffff16565b9050600060076000848152602001908152602001600020549050818114611a18576000600660008673ffffffffffffffffffffffffffffffffffffffff1673ffffffffffffffffffffffffffffffffffffffff168152602001908152602001600020838154811061199157611990612cea565b5b9060005260206000200154905080600660008773ffffffffffffffffffffffffffffffffffffffff1673ffffffffffffffffffffffffffffffffffffffff16815260200190815260200160002083815481106119f0576119ef612cea565b5b9060005260206000200181905550816007600083815260200190815260200160002081905550505b6007600084815260200190815260200160002060009055600660008573ffffffffffffffffffffffffffffffffffffffff1673ffffffffffffffffffffffffffffffffffffffff1681526020019081526020016000208281548110611a8057611a7f612cea565b5b906000526020600020016000905550505050565b600660008373ffffffffffffffffffffffffffffffffffffffff1673ffffffffffffffffffffffffffffffffffffffff168152602001908152602001600020805490506007600083815260200190815260200160002081905550600660008373ffffffffffffffffffffffffffffffffffffffff1673ffffffffffffffffffffffffffffffffffffffff1681526020019081526020016000208190806001815401808255809150506001900390600052602060002001600090919091909150555050565b600073ffffffffffffffffffffffffffffffffffffffff168273ffffffffffffffffffffffffffffffffffffffff1603611bc7576040517f08c379a0000000000000000000000000000000000000000000000000000000008152600401611bbe9061360a565b60405180910390fd5b611bd081611364565b15611c10576040517f08c379a0000000000000000000000000000000000000000000000000000000008152600401611c0790613676565b60405180910390fd5b611c57600460008473ffffffffffffffffffffffffffffffffffffffff1673ffffffffffffffffffffffffffffffffffffffff16815260200190815260200160002061218a565b816002600083815260200190815260200160002060006101000a81548173ffffffffffffffffffffffffffffffffffffffff021916908373ffffffffffffffffffffffffffffffffffffffff160217905550808273ffffffffffffffffffffffffffffffffffffffff16600073ffffffffffffffffffffffffffffffffffffffff167fddf252ad1be2c89b69c2b068fc378daa952ba7f163c4a11628f55a4df523b3ef60405160405180910390a45050565b6008805490506009600083815260200190815260200160002081905550600881908060018154018082558091505060019003906000526020600020016000909190919091505550565b606060008203611d99576040518060400160405280600181526020017f30000000000000000000000000000000000000000000000000000000000000008152509050611ead565b600082905060005b60008214611dcb578080611db4906136c5565b915050600a82611dc4919061373c565b9150611da1565b60008167ffffffffffffffff811115611de757611de661253d565b5b6040519080825280601f01601f191660200182016040528015611e195781602001600182028036833780820191505090505b5090505b60008514611ea657600182611e32919061376d565b9150600a85611e4191906137a1565b6030611e4d91906137d2565b60f81b818381518110611e6357611e62612cea565b5b60200101907effffffffffffffffffffffffffffffffffffffffffffffffffffffffffffff1916908160001a905350600a85611e9f919061373c565b9450611e1d565b8093505050505b919050565b606060008390506000839050600081518351611ece91906137d2565b67ffffffffffffffff811115611ee757611ee661253d565b5b6040519080825280601f01601f191660200182016040528015611f195781602001600182028036833780820191505090505b5090506000819050600080600090505b8551811015611fb157858181518110611f4557611f44612cea565b5b602001015160f81c60f81b838380611f5c906136c5565b945081518110611f6f57611f6e612cea565b5b60200101907effffffffffffffffffffffffffffffffffffffffffffffffffffffffffffff1916908160001a9053508080611fa9906136c5565b915050611f29565b600090505b845181101561203e57848181518110611fd257611fd1612cea565b5b602001015160f81c60f81b838380611fe9906136c5565b945081518110611ffc57611ffb612cea565b5b60200101907effffffffffffffffffffffffffffffffffffffffffffffffffffffffffffff1916908160001a9053508080612036906136c5565b915050611fb6565b82965050505050505092915050565b6000808273ffffffffffffffffffffffffffffffffffffffff163b119050919050565b600073ffffffffffffffffffffffffffffffffffffffff166003600083815260200190815260200160002060009054906101000a900473ffffffffffffffffffffffffffffffffffffffff1673ffffffffffffffffffffffffffffffffffffffff161461212b5760006003600083815260200190815260200160002060006101000a81548173ffffffffffffffffffffffffffffffffffffffff021916908373ffffffffffffffffffffffffffffffffffffffff1602179055505b50565b6000816000015490506000811161217a576040517f08c379a000000000000000000000000000000000000000000000000000000000815260040161217190613852565b60405180910390fd5b6001810382600001819055505050565b6001816000016000828254019250508190555050565b600081836121ae919061376d565b905092915050565b6000604051905090565b600080fd5b600080fd5b60007fffffffff0000000000000000000000000000000000000000000000000000000082169050919050565b6121ff816121ca565b811461220a57600080fd5b50565b60008135905061221c816121f6565b92915050565b600060208284031215612238576122376121c0565b5b60006122468482850161220d565b91505092915050565b60008115159050919050565b6122648161224f565b82525050565b600060208201905061227f600083018461225b565b92915050565b600081519050919050565b600082825260208201905092915050565b60005b838110156122bf5780820151818401526020810190506122a4565b60008484015250505050565b6000601f19601f8301169050919050565b60006122e782612285565b6122f18185612290565b93506123018185602086016122a1565b61230a816122cb565b840191505092915050565b6000602082019050818103600083015261232f81846122dc565b905092915050565b6000819050919050565b61234a81612337565b811461235557600080fd5b50565b60008135905061236781612341565b92915050565b600060208284031215612383576123826121c0565b5b600061239184828501612358565b91505092915050565b600073ffffffffffffffffffffffffffffffffffffffff82169050919050565b60006123c58261239a565b9050919050565b6123d5816123ba565b82525050565b60006020820190506123f060008301846123cc565b92915050565b6123ff816123ba565b811461240a57600080fd5b50565b60008135905061241c816123f6565b92915050565b60008060408385031215612439576124386121c0565b5b60006124478582860161240d565b925050602061245885828601612358565b9150509250929050565b61246b8161224f565b811461247657600080fd5b50565b60008135905061248881612462565b92915050565b6000602082840312156124a4576124a36121c0565b5b60006124b284828501612479565b91505092915050565b6124c481612337565b82525050565b60006020820190506124df60008301846124bb565b92915050565b6000806000606084860312156124fe576124fd6121c0565b5b600061250c8682870161240d565b935050602061251d8682870161240d565b925050604061252e86828701612358565b9150509250925092565b600080fd5b7f4e487b7100000000000000000000000000000000000000000000000000000000600052604160045260246000fd5b612575826122cb565b810181811067ffffffffffffffff821117156125945761259361253d565b5b80604052505050565b60006125a76121b6565b90506125b3828261256c565b919050565b600067ffffffffffffffff8211156125d3576125d261253d565b5b602082029050919050565b600080fd5b60006125f66125f1846125b8565b61259d565b905080602084028301858111156126105761260f6125de565b5b835b8181101561263957806126258882612358565b845260208401935050602081019050612612565b5050509392505050565b600082601f83011261265857612657612538565b5b60026126658482856125e3565b91505092915050565b600067ffffffffffffffff8211156126895761268861253d565b5b602082029050919050565b60006126a76126a28461266e565b61259d565b905080604084028301858111156126c1576126c06125de565b5b835b818110156126ea57806126d68882612643565b8452602084019350506040810190506126c3565b5050509392505050565b600082601f83011261270957612708612538565b5b6002612716848285612694565b91505092915050565b600067ffffffffffffffff82111561273a5761273961253d565b5b602082029050919050565b60006127586127538461271f565b61259d565b90508060208402830185811115612772576127716125de565b5b835b8181101561279b57806127878882612358565b845260208401935050602081019050612774565b5050509392505050565b600082601f8301126127ba576127b9612538565b5b60016127c7848285612745565b91505092915050565b600080600080600061014086880312156127ed576127ec6121c0565b5b60006127fb88828901612358565b955050602061280c88828901612643565b945050606061281d888289016126f4565b93505060e061282e88828901612643565b925050610120612840888289016127a5565b9150509295509295909350565b600060208284031215612863576128626121c0565b5b60006128718482850161240d565b91505092915050565b60008060408385031215612891576128906121c0565b5b600061289f8582860161240d565b92505060206128b085828601612479565b9150509250929050565b600080fd5b600067ffffffffffffffff8211156128da576128d961253d565b5b6128e3826122cb565b9050602081019050919050565b82818337600083830152505050565b600061291261290d846128bf565b61259d565b90508281526020810184848401111561292e5761292d6128ba565b5b6129398482856128f0565b509392505050565b600082601f83011261295657612955612538565b5b81356129668482602086016128ff565b91505092915050565b60008060008060808587031215612989576129886121c0565b5b60006129978782880161240d565b94505060206129a88782880161240d565b93505060406129b987828801612358565b925050606085013567ffffffffffffffff8111156129da576129d96121c5565b5b6129e687828801612941565b91505092959194509250565b60008060408385031215612a0957612a086121c0565b5b6000612a178582860161240d565b9250506020612a288582860161240d565b9150509250929050565b600080fd5b600060408284031215612a4d57612a4c612a32565b5b612a57604061259d565b90506000612a678482850161240d565b6000830152506020612a7b84828501612358565b60208301525092915050565b600060408284031215612a9d57612a9c6121c0565b5b6000612aab84828501612a37565b91505092915050565b7f4e487b7100000000000000000000000000000000000000000000000000000000600052602260045260246000fd5b60006002820490506001821680612afb57607f821691505b602082108103612b0e57612b0d612ab4565b5b50919050565b7f546f6b656e20646f6573206e6f74206578697374000000000000000000000000600082015250565b6000612b4a601483612290565b9150612b5582612b14565b602082019050919050565b60006020820190508181036000830152612b7981612b3d565b9050919050565b7f43616e6e6f7420617070726f766520746f6b656e20746f206f776e6572000000600082015250565b6000612bb6601d83612290565b9150612bc182612b80565b602082019050919050565b60006020820190508181036000830152612be581612ba9565b9050919050565b7f4e6f7420617574686f72697a656420746f20617070726f766520746f6b656e00600082015250565b6000612c22601f83612290565b9150612c2d82612bec565b602082019050919050565b60006020820190508181036000830152612c5181612c15565b9050919050565b7f4f6e6c79206f776e65722063616e2063616c6c20746869732066756e6374696f60008201527f6e00000000000000000000000000000000000000000000000000000000000000602082015250565b6000612cb4602183612290565b9150612cbf82612c58565b604082019050919050565b60006020820190508181036000830152612ce381612ca7565b9050919050565b7f4e487b7100000000000000000000000000000000000000000000000000000000600052603260045260246000fd5b7f536f6c7574696f6e20616c726561647920657869737473000000000000000000600082015250565b6000612d4f601783612290565b9150612d5a82612d19565b602082019050919050565b60006020820190508181036000830152612d7e81612d42565b9050919050565b600060029050919050565b600081905092915050565b6000819050919050565b612dae81612337565b82525050565b6000612dc08383612da5565b60208301905092915050565b6000602082019050919050565b612de281612d85565b612dec8184612d90565b9250612df782612d9b565b8060005b83811015612e28578151612e0f8782612db4565b9650612e1a83612dcc565b925050600181019050612dfb565b505050505050565b600060029050919050565b600081905092915050565b6000819050919050565b600081905092915050565b612e6481612d85565b612e6e8184612e50565b9250612e7982612d9b565b8060005b83811015612eaa578151612e918782612db4565b9650612e9c83612dcc565b925050600181019050612e7d565b505050505050565b6000612ebe8383612e5b565b60408301905092915050565b6000602082019050919050565b612ee081612e30565b612eea8184612e3b565b9250612ef582612e46565b8060005b83811015612f26578151612f0d8782612eb2565b9650612f1883612eca565b925050600181019050612ef9565b505050505050565b600060019050919050565b600081905092915050565b6000819050919050565b6000602082019050919050565b612f6481612f2e565b612f6e8184612f39565b9250612f7982612f44565b8060005b83811015612faa578151612f918782612db4565b9650612f9c83612f4e565b925050600181019050612f7d565b505050505050565b600061012082019050612fc86000830187612dd9565b612fd56040830186612ed7565b612fe260c0830185612dd9565b612ff0610100830184612f5b565b95945050505050565b60008151905061300881612462565b92915050565b600060208284031215613024576130236121c0565b5b600061303284828501612ff9565b91505092915050565b7f566572696669636174696f6e206661696c656400000000000000000000000000600082015250565b6000613071601383612290565b915061307c8261303b565b602082019050919050565b600060208201905081810360008301526130a081613064565b9050919050565b7f4e6577206f776e65722063616e6e6f7420626520746865207a65726f2061646460008201527f7265737300000000000000000000000000000000000000000000000000000000602082015250565b6000613103602483612290565b915061310e826130a7565b604082019050919050565b60006020820190508181036000830152613132816130f6565b9050919050565b60008190508160005260206000209050919050565b60006020601f8301049050919050565b600082821b905092915050565b60006008830261319b7fffffffffffffffffffffffffffffffffffffffffffffffffffffffffffffffff8261315e565b6131a5868361315e565b95508019841693508086168417925050509392505050565b6000819050919050565b60006131e26131dd6131d884612337565b6131bd565b612337565b9050919050565b6000819050919050565b6131fc836131c7565b613210613208826131e9565b84845461316b565b825550505050565b600090565b613225613218565b6132308184846131f3565b505050565b5b818110156132545761324960008261321d565b600181019050613236565b5050565b601f8211156132995761326a81613139565b6132738461314e565b81016020851015613282578190505b61329661328e8561314e565b830182613235565b50505b505050565b600082821c905092915050565b60006132bc6000198460080261329e565b1980831691505092915050565b60006132d583836132ab565b9150826002028217905092915050565b6132ee82612285565b67ffffffffffffffff8111156133075761330661253d565b5b6133118254612ae3565b61331c828285613258565b600060209050601f83116001811461334f576000841561333d578287015190505b61334785826132c9565b8655506133af565b601f19841661335d86613139565b60005b8281101561338557848901518255600182019150602085019450602081019050613360565b868310156133a2578489015161339e601f8916826132ab565b8355505b6001600288020188555050505b505050505050565b600081519050919050565b600082825260208201905092915050565b60006133de826133b7565b6133e881856133c2565b93506133f88185602086016122a1565b613401816122cb565b840191505092915050565b600060808201905061342160008301876123cc565b61342e60208301866123cc565b61343b60408301856124bb565b818103606083015261344d81846133d3565b905095945050505050565b600081519050613467816121f6565b92915050565b600060208284031215613483576134826121c0565b5b600061349184828501613458565b91505092915050565b7f4552433732313a207472616e73666572206f6620746f6b656e2074686174206960008201527f73206e6f74206f776e0000000000000000000000000000000000000000000000602082015250565b60006134f6602983612290565b91506135018261349a565b604082019050919050565b60006020820190508181036000830152613525816134e9565b9050919050565b7f4552433732313a207472616e7366657220746f20746865207a65726f2061646460008201527f7265737300000000000000000000000000000000000000000000000000000000602082015250565b6000613588602483612290565b91506135938261352c565b604082019050919050565b600060208201905081810360008301526135b78161357b565b9050919050565b7f43616e6e6f74206d696e7420746f206164647265737320300000000000000000600082015250565b60006135f4601883612290565b91506135ff826135be565b602082019050919050565b60006020820190508181036000830152613623816135e7565b9050919050565b7f546f6b656e20616c726561647920657869737473000000000000000000000000600082015250565b6000613660601483612290565b915061366b8261362a565b602082019050919050565b6000602082019050818103600083015261368f81613653565b9050919050565b7f4e487b7100000000000000000000000000000000000000000000000000000000600052601160045260246000fd5b60006136d082612337565b91507fffffffffffffffffffffffffffffffffffffffffffffffffffffffffffffffff820361370257613701613696565b5b600182019050919050565b7f4e487b7100000000000000000000000000000000000000000000000000000000600052601260045260246000fd5b600061374782612337565b915061375283612337565b9250826137625761376161370d565b5b828204905092915050565b600061377882612337565b915061378383612337565b925082820390508181111561379b5761379a613696565b5b92915050565b60006137ac82612337565b91506137b783612337565b9250826137c7576137c661370d565b5b828206905092915050565b60006137dd82612337565b91506137e883612337565b9250828201905080821115613800576137ff613696565b5b92915050565b7f436f756e7465723a2064656372656d656e74206f766572666c6f770000000000600082015250565b600061383c601b83612290565b915061384782613806565b602082019050919050565b6000602082019050818103600083015261386b8161382f565b905091905056fea26469706673582212206286d11f33883af15efa5f6ebc8ec3ff87f62a08e35f70d1c247367e59dbeb4464736f6c6343000811003368747470733a2f2f73332d75732d776573742d322e616d617a6f6e6177732e636f6d2f756461636974792d626c6f636b636861696e2f63617073746f6e652f",
  "immutableReferences": {},
  "source": "//SPDX-License-Identifier: MIT\npragma solidity ^0.8.0;\n\nimport \"./ERC721Mintable.sol\";\nimport \"./verifier.sol\";\n\n// TODO define a contract call to the zokrates generated solidity contract <Verifier> or <renamedVerifier>\n// TODO define another contract named SolnSquareVerifier that inherits from your ERC721Mintable class\n// TODO define a solutions struct that can hold an index & an address\n// TODO define an array of the above struct\n// TODO define a mapping to store unique solutions submitted\n// TODO Create an event to emit when a solution is added\n// TODO Create a function to add the solutions to the array and emit the event\n// TODO Create a function to mint new NFT only after the solution has been verified\n//  - make sure the solution is unique (has not been used before)\n//  - make sure you handle metadata as well as tokenSuplly\n\ninterface IVerifier {\n    function _verifyTx(\n        uint256[2] memory a,\n        uint256[2][2] memory b,\n        uint256[2] memory c,\n        uint256[1] memory input\n    ) external view returns (bool r);\n}\n\ncontract SolnSquareVerifier is CapstoneERC721Token {\n    struct Solution {\n        address addr;\n        uint256 index;\n    }\n\n    Solution[] private solutions;\n\n    //  define a mapping to store unique solutions submitted\n    mapping(uint256 => Solution) private uniqueSolutions;\n\n    event SolutionAdded(address indexed addr, uint256 indexed index);\n\n    IVerifier private verifier;\n\n    constructor(\n        address _contractAddress,\n        string memory _name,\n        string memory _symbol\n    ) CapstoneERC721Token(_name, _symbol) {\n        verifier = IVerifier(_contractAddress);\n    }\n\n    function addSolution(Solution memory solution) public {\n        uint256 index = solution.index;\n\n        solutions.push(solution);\n        uniqueSolutions[index] = solution;\n\n        emit SolutionAdded(solution.addr, index);\n    }\n\n    function mintNFT(\n        uint256 tokenId,\n        uint256[2] memory a,\n        uint256[2][2] memory b,\n        uint256[2] memory c,\n        uint256[1] memory input\n    ) external {\n        require(\n            uniqueSolutions[tokenId].addr == address(0),\n            \"Solution already exists\"\n        );\n        require(verifier._verifyTx(a, b, c, input), \"Verification failed\");\n\n        Solution memory sol = Solution({addr: msg.sender, index: tokenId});\n\n        addSolution(sol);\n        mint(msg.sender, tokenId);\n    }\n}\n",
  "sourcePath": "/mnt/Data/Study/Udacity/Udacity-Capstone-Real-Estate-Marketplace-Project/contracts/SolnSquareVerifier.sol",
  "compiler": {
    "name": "solc",
    "version": "0.8.17+commit.8df45f5f.Emscripten.clang"
  },
  "schemaVersion": "3.4.9",
  "updatedAt": "2022-09-13T05:35:16.037Z",
  "networkType": "ethereum",
  "devdoc": {
    "kind": "dev",
    "methods": {
      "isApprovedForAll(address,address)": {
        "details": "Tells whether an operator is approved by a given owner",
        "params": {
          "operator": "operator address which you want to query the approval of",
          "owner": "owner address which you want to query the approval of"
        },
        "returns": {
          "_0": "bool whether the given operator is approved by the given owner"
        }
      },
      "setApprovalForAll(address,bool)": {
        "details": "Sets or unsets the approval of a given operator An operator is allowed to transfer all tokens of the sender on their behalf",
        "params": {
          "approved": "representing the status of the approval to be set",
          "to": "operator address to set the approval"
        }
      },
      "supportsInterface(bytes4)": {
        "details": "implement supportsInterface(bytes4) using a lookup table"
      },
      "tokenByIndex(uint256)": {
        "details": "Gets the token ID at a given index of all the tokens in this contract Reverts if the index is greater or equal to the total number of tokens",
        "params": {
          "index": "uint256 representing the index to be accessed of the tokens list"
        },
        "returns": {
          "_0": "uint256 token ID at the given index of the tokens list"
        }
      },
      "tokenOfOwnerByIndex(address,uint256)": {
        "details": "Gets the token ID at a given index of the tokens list of the requested owner",
        "params": {
          "index": "uint256 representing the index to be accessed of the requested tokens list",
          "owner": "address owning the tokens list to be accessed"
        },
        "returns": {
          "_0": "uint256 token ID at the given index of the tokens list owned by the requested address"
        }
      },
      "totalSupply()": {
        "details": "Gets the total amount of tokens stored by the contract",
        "returns": {
          "_0": "uint256 representing the total amount of tokens"
        }
      }
    },
    "version": 1
  },
  "userdoc": {
    "kind": "user",
    "methods": {},
    "version": 1
  }
}