{
  "contractName": "SolnSquareVerifier",
  "abi": [
    {
      "inputs": [
        {
          "internalType": "address",
          "name": "_verifierContract",
          "type": "address"
        }
      ],
      "stateMutability": "nonpayable",
      "type": "constructor"
    },
    {
      "anonymous": false,
      "inputs": [
        {
          "indexed": true,
          "internalType": "address",
          "name": "owner",
          "type": "address"
        },
        {
          "indexed": true,
          "internalType": "address",
          "name": "approved",
          "type": "address"
        },
        {
          "indexed": true,
          "internalType": "uint256",
          "name": "tokenId",
          "type": "uint256"
        }
      ],
      "name": "Approval",
      "type": "event"
    },
    {
      "anonymous": false,
      "inputs": [
        {
          "indexed": true,
          "internalType": "address",
          "name": "owner",
          "type": "address"
        },
        {
          "indexed": true,
          "internalType": "address",
          "name": "operator",
          "type": "address"
        },
        {
          "indexed": false,
          "internalType": "bool",
          "name": "approved",
          "type": "bool"
        }
      ],
      "name": "ApprovalForAll",
      "type": "event"
    },
    {
      "anonymous": false,
      "inputs": [
        {
          "indexed": true,
          "internalType": "address",
          "name": "previousOwner",
          "type": "address"
        },
        {
          "indexed": true,
          "internalType": "address",
          "name": "newOwner",
          "type": "address"
        }
      ],
      "name": "OwnershipTransferred",
      "type": "event"
    },
    {
      "anonymous": false,
      "inputs": [
        {
          "indexed": false,
          "internalType": "address",
          "name": "account",
          "type": "address"
        }
      ],
      "name": "Paused",
      "type": "event"
    },
    {
      "anonymous": false,
      "inputs": [
        {
          "indexed": true,
          "internalType": "address",
          "name": "submitter",
          "type": "address"
        },
        {
          "indexed": false,
          "internalType": "uint256",
          "name": "index",
          "type": "uint256"
        },
        {
          "indexed": false,
          "internalType": "bytes32",
          "name": "hash",
          "type": "bytes32"
        }
      ],
      "name": "SolutionAdded",
      "type": "event"
    },
    {
      "anonymous": false,
      "inputs": [
        {
          "indexed": true,
          "internalType": "address",
          "name": "from",
          "type": "address"
        },
        {
          "indexed": true,
          "internalType": "address",
          "name": "to",
          "type": "address"
        },
        {
          "indexed": true,
          "internalType": "uint256",
          "name": "tokenId",
          "type": "uint256"
        }
      ],
      "name": "Transfer",
      "type": "event"
    },
    {
      "anonymous": false,
      "inputs": [
        {
          "indexed": false,
          "internalType": "address",
          "name": "account",
          "type": "address"
        }
      ],
      "name": "Unpaused",
      "type": "event"
    },
    {
      "inputs": [
        {
          "internalType": "bytes32",
          "name": "_myid",
          "type": "bytes32"
        },
        {
          "internalType": "string",
          "name": "_result",
          "type": "string"
        }
      ],
      "name": "__callback",
      "outputs": [],
      "stateMutability": "nonpayable",
      "type": "function"
    },
    {
      "inputs": [
        {
          "internalType": "bytes32",
          "name": "_myid",
          "type": "bytes32"
        },
        {
          "internalType": "string",
          "name": "_result",
          "type": "string"
        },
        {
          "internalType": "bytes",
          "name": "_proof",
          "type": "bytes"
        }
      ],
      "name": "__callback",
      "outputs": [],
      "stateMutability": "nonpayable",
      "type": "function"
    },
    {
      "inputs": [
        {
          "internalType": "address",
          "name": "to",
          "type": "address"
        },
        {
          "internalType": "uint256",
          "name": "tokenId",
          "type": "uint256"
        }
      ],
      "name": "approve",
      "outputs": [],
      "stateMutability": "nonpayable",
      "type": "function"
    },
    {
      "inputs": [
        {
          "internalType": "address",
          "name": "owner",
          "type": "address"
        }
      ],
      "name": "balanceOf",
      "outputs": [
        {
          "internalType": "uint256",
          "name": "",
          "type": "uint256"
        }
      ],
      "stateMutability": "view",
      "type": "function"
    },
    {
      "inputs": [],
      "name": "baseTokenURI",
      "outputs": [
        {
          "internalType": "string",
          "name": "",
          "type": "string"
        }
      ],
      "stateMutability": "view",
      "type": "function"
    },
    {
      "inputs": [
        {
          "internalType": "uint256",
          "name": "tokenId",
          "type": "uint256"
        }
      ],
      "name": "getApproved",
      "outputs": [
        {
          "internalType": "address",
          "name": "",
          "type": "address"
        }
      ],
      "stateMutability": "view",
      "type": "function"
    },
    {
      "inputs": [
        {
          "internalType": "address",
          "name": "owner",
          "type": "address"
        },
        {
          "internalType": "address",
          "name": "operator",
          "type": "address"
        }
      ],
      "name": "isApprovedForAll",
      "outputs": [
        {
          "internalType": "bool",
          "name": "",
          "type": "bool"
        }
      ],
      "stateMutability": "view",
      "type": "function"
    },
    {
      "inputs": [
        {
          "internalType": "address",
          "name": "to",
          "type": "address"
        },
        {
          "internalType": "uint256",
          "name": "tokenId",
          "type": "uint256"
        },
        {
          "internalType": "string",
          "name": "tokenURI",
          "type": "string"
        }
      ],
      "name": "mint",
      "outputs": [
        {
          "internalType": "bool",
          "name": "",
          "type": "bool"
        }
      ],
      "stateMutability": "nonpayable",
      "type": "function"
    },
    {
      "inputs": [],
      "name": "name",
      "outputs": [
        {
          "internalType": "string",
          "name": "",
          "type": "string"
        }
      ],
      "stateMutability": "view",
      "type": "function"
    },
    {
      "inputs": [],
      "name": "owner",
      "outputs": [
        {
          "internalType": "address",
          "name": "",
          "type": "address"
        }
      ],
      "stateMutability": "view",
      "type": "function"
    },
    {
      "inputs": [
        {
          "internalType": "uint256",
          "name": "tokenId",
          "type": "uint256"
        }
      ],
      "name": "ownerOf",
      "outputs": [
        {
          "internalType": "address",
          "name": "",
          "type": "address"
        }
      ],
      "stateMutability": "view",
      "type": "function"
    },
    {
      "inputs": [],
      "name": "pause",
      "outputs": [],
      "stateMutability": "nonpayable",
      "type": "function"
    },
    {
      "inputs": [],
      "name": "paused",
      "outputs": [
        {
          "internalType": "bool",
          "name": "",
          "type": "bool"
        }
      ],
      "stateMutability": "view",
      "type": "function"
    },
    {
      "inputs": [],
      "name": "renounceOwnership",
      "outputs": [],
      "stateMutability": "nonpayable",
      "type": "function"
    },
    {
      "inputs": [
        {
          "internalType": "address",
          "name": "from",
          "type": "address"
        },
        {
          "internalType": "address",
          "name": "to",
          "type": "address"
        },
        {
          "internalType": "uint256",
          "name": "tokenId",
          "type": "uint256"
        }
      ],
      "name": "safeTransferFrom",
      "outputs": [],
      "stateMutability": "nonpayable",
      "type": "function"
    },
    {
      "inputs": [
        {
          "internalType": "address",
          "name": "from",
          "type": "address"
        },
        {
          "internalType": "address",
          "name": "to",
          "type": "address"
        },
        {
          "internalType": "uint256",
          "name": "tokenId",
          "type": "uint256"
        },
        {
          "internalType": "bytes",
          "name": "_data",
          "type": "bytes"
        }
      ],
      "name": "safeTransferFrom",
      "outputs": [],
      "stateMutability": "nonpayable",
      "type": "function"
    },
    {
      "inputs": [
        {
          "internalType": "address",
          "name": "to",
          "type": "address"
        },
        {
          "internalType": "bool",
          "name": "approved",
          "type": "bool"
        }
      ],
      "name": "setApprovalForAll",
      "outputs": [],
      "stateMutability": "nonpayable",
      "type": "function"
    },
    {
      "inputs": [
        {
          "internalType": "bytes4",
          "name": "interfaceId",
          "type": "bytes4"
        }
      ],
      "name": "supportsInterface",
      "outputs": [
        {
          "internalType": "bool",
          "name": "",
          "type": "bool"
        }
      ],
      "stateMutability": "view",
      "type": "function"
    },
    {
      "inputs": [],
      "name": "symbol",
      "outputs": [
        {
          "internalType": "string",
          "name": "",
          "type": "string"
        }
      ],
      "stateMutability": "view",
      "type": "function"
    },
    {
      "inputs": [
        {
          "internalType": "uint256",
          "name": "index",
          "type": "uint256"
        }
      ],
      "name": "tokenByIndex",
      "outputs": [
        {
          "internalType": "uint256",
          "name": "",
          "type": "uint256"
        }
      ],
      "stateMutability": "view",
      "type": "function"
    },
    {
      "inputs": [
        {
          "internalType": "address",
          "name": "owner",
          "type": "address"
        },
        {
          "internalType": "uint256",
          "name": "index",
          "type": "uint256"
        }
      ],
      "name": "tokenOfOwnerByIndex",
      "outputs": [
        {
          "internalType": "uint256",
          "name": "",
          "type": "uint256"
        }
      ],
      "stateMutability": "view",
      "type": "function"
    },
    {
      "inputs": [
        {
          "internalType": "uint256",
          "name": "tokenId",
          "type": "uint256"
        }
      ],
      "name": "tokenURI",
      "outputs": [
        {
          "internalType": "string",
          "name": "",
          "type": "string"
        }
      ],
      "stateMutability": "view",
      "type": "function"
    },
    {
      "inputs": [],
      "name": "totalSupply",
      "outputs": [
        {
          "internalType": "uint256",
          "name": "",
          "type": "uint256"
        }
      ],
      "stateMutability": "view",
      "type": "function"
    },
    {
      "inputs": [
        {
          "internalType": "address",
          "name": "from",
          "type": "address"
        },
        {
          "internalType": "address",
          "name": "to",
          "type": "address"
        },
        {
          "internalType": "uint256",
          "name": "tokenId",
          "type": "uint256"
        }
      ],
      "name": "transferFrom",
      "outputs": [],
      "stateMutability": "nonpayable",
      "type": "function"
    },
    {
      "inputs": [
        {
          "internalType": "address",
          "name": "newOwner",
          "type": "address"
        }
      ],
      "name": "transferOwnership",
      "outputs": [],
      "stateMutability": "nonpayable",
      "type": "function"
    },
    {
      "inputs": [],
      "name": "unpause",
      "outputs": [],
      "stateMutability": "nonpayable",
      "type": "function"
    },
    {
      "inputs": [
        {
          "internalType": "uint256",
          "name": "tokenId",
          "type": "uint256"
        },
        {
          "components": [
            {
              "internalType": "uint256[2]",
              "name": "a",
              "type": "uint256[2]"
            },
            {
              "internalType": "uint256[2][2]",
              "name": "b",
              "type": "uint256[2][2]"
            },
            {
              "internalType": "uint256[2]",
              "name": "c",
              "type": "uint256[2]"
            }
          ],
          "internalType": "struct SolnSquareVerifier.Proof",
          "name": "proof",
          "type": "tuple"
        },
        {
          "internalType": "uint256[3]",
          "name": "input",
          "type": "uint256[3]"
        }
      ],
      "name": "mintNFT",
      "outputs": [],
      "stateMutability": "nonpayable",
      "type": "function"
    }
  ],
  "bytecode": "0x60806040526040518060400160405280601381526020017f43617073746f6e65455243373231546f6b656e00000000000000000000000000815250601390816200004a919062000778565b506040518060400160405280600581526020017f44455649430000000000000000000000000000000000000000000000000000008152506014908162000091919062000778565b506040518060600160405280603f815260200162004571603f913960159081620000bc919062000778565b50348015620000ca57600080fd5b50604051620045b0380380620045b08339818101604052810190620000f09190620008c9565b60138054620000ff9062000567565b80601f01602080910402602001604051908101604052809291908181526020018280546200012d9062000567565b80156200017e5780601f1062000152576101008083540402835291602001916200017e565b820191906000526020600020905b8154815290600101906020018083116200016057829003601f168201915b505050505060148054620001929062000567565b80601f0160208091040260200160405190810160405280929190818152602001828054620001c09062000567565b8015620002115780601f10620001e55761010080835404028352916020019162000211565b820191906000526020600020905b815481529060010190602001808311620001f357829003601f168201915b505050505060158054620002259062000567565b80601f0160208091040260200160405190810160405280929190818152602001828054620002539062000567565b8015620002a45780601f106200027857610100808354040283529160200191620002a4565b820191906000526020600020905b8154815290600101906020018083116200028657829003601f168201915b5050505050336000806101000a81548173ffffffffffffffffffffffffffffffffffffffff021916908373ffffffffffffffffffffffffffffffffffffffff16021790555060008054906101000a900473ffffffffffffffffffffffffffffffffffffffff1673ffffffffffffffffffffffffffffffffffffffff16600073ffffffffffffffffffffffffffffffffffffffff167f8be0079c531659141344cd1fd0a4f28419497f9722a3daafe3b4186f6b6457e060405160405180910390a360008060146101000a81548160ff021916908315150217905550620003966301ffc9a760e01b6200045f60201b60201c565b620003ae6380ac58cd60e01b6200045f60201b60201c565b620003c663780e9d6360e01b6200045f60201b60201c565b82600f9081620003d7919062000778565b508160109081620003e9919062000778565b508060119081620003fb919062000778565b5062000414635b5e139f60e01b6200045f60201b60201c565b50505080601660006101000a81548173ffffffffffffffffffffffffffffffffffffffff021916908373ffffffffffffffffffffffffffffffffffffffff16021790555050620008fb565b63ffffffff60e01b817bffffffffffffffffffffffffffffffffffffffffffffffffffffffff1916036200049257600080fd5b6001806000837bffffffffffffffffffffffffffffffffffffffffffffffffffffffff19167bffffffffffffffffffffffffffffffffffffffffffffffffffffffff1916815260200190815260200160002060006101000a81548160ff02191690831515021790555050565b600081519050919050565b7f4e487b7100000000000000000000000000000000000000000000000000000000600052604160045260246000fd5b7f4e487b7100000000000000000000000000000000000000000000000000000000600052602260045260246000fd5b600060028204905060018216806200058057607f821691505b60208210810362000596576200059562000538565b5b50919050565b60008190508160005260206000209050919050565b60006020601f8301049050919050565b600082821b905092915050565b600060088302620006007fffffffffffffffffffffffffffffffffffffffffffffffffffffffffffffffff82620005c1565b6200060c8683620005c1565b95508019841693508086168417925050509392505050565b6000819050919050565b6000819050919050565b600062000659620006536200064d8462000624565b6200062e565b62000624565b9050919050565b6000819050919050565b620006758362000638565b6200068d620006848262000660565b848454620005ce565b825550505050565b600090565b620006a462000695565b620006b18184846200066a565b505050565b5b81811015620006d957620006cd6000826200069a565b600181019050620006b7565b5050565b601f8211156200072857620006f2816200059c565b620006fd84620005b1565b810160208510156200070d578190505b620007256200071c85620005b1565b830182620006b6565b50505b505050565b600082821c905092915050565b60006200074d600019846008026200072d565b1980831691505092915050565b60006200076883836200073a565b9150826002028217905092915050565b6200078382620004fe565b67ffffffffffffffff8111156200079f576200079e62000509565b5b620007ab825462000567565b620007b8828285620006dd565b600060209050601f831160018114620007f05760008415620007db578287015190505b620007e785826200075a565b86555062000857565b601f19841662000800866200059c565b60005b828110156200082a5784890151825560018201915060208501945060208101905062000803565b868310156200084a578489015162000846601f8916826200073a565b8355505b6001600288020188555050505b505050505050565b600080fd5b600073ffffffffffffffffffffffffffffffffffffffff82169050919050565b6000620008918262000864565b9050919050565b620008a38162000884565b8114620008af57600080fd5b50565b600081519050620008c38162000898565b92915050565b600060208284031215620008e257620008e16200085f565b5b6000620008f284828501620008b2565b91505092915050565b613c66806200090b6000396000f3fe608060405234801561001057600080fd5b50600436106101a95760003560e01c80636352211e116100f9578063a22cb46511610097578063d3fc986411610071578063d3fc986414610492578063d547cfb7146104c2578063e985e9c5146104e0578063f2fde38b14610510576101a9565b8063a22cb4651461042a578063b88d4fde14610446578063c87b56dd14610462576101a9565b80638456cb59116100d35780638456cb59146103c85780638da5cb5b146103d257806395d89b41146103f05780639aa84e471461040e576101a9565b80636352211e1461035e57806370a082311461038e578063715018a6146103be576101a9565b806327dc297e116101665780633f4ba83a116101405780633f4ba83a146102ea57806342842e0e146102f45780634f6ccce7146103105780635c975abb14610340576101a9565b806327dc297e146102825780632f745c591461029e57806338bbfa50146102ce576101a9565b806301ffc9a7146101ae57806306fdde03146101de578063081812fc146101fc578063095ea7b31461022c57806318160ddd1461024857806323b872dd14610266575b600080fd5b6101c860048036038101906101c3919061242a565b61052c565b6040516101d59190612472565b60405180910390f35b6101e6610594565b6040516101f3919061251d565b60405180910390f35b61021660048036038101906102119190612575565b610626565b60405161022391906125e3565b60405180910390f35b6102466004803603810190610241919061262a565b61062d565b005b610250610631565b60405161025d9190612679565b60405180910390f35b610280600480360381019061027b9190612694565b61063e565b005b61029c60048036038101906102979190612852565b610661565b005b6102b860048036038101906102b3919061262a565b6106bd565b6040516102c59190612679565b60405180910390f35b6102e860048036038101906102e3919061294f565b610737565b005b6102f261073c565b005b61030e60048036038101906103099190612694565b61086c565b005b61032a60048036038101906103259190612575565b61088c565b6040516103379190612679565b60405180910390f35b6103486108c7565b6040516103559190612472565b60405180910390f35b61037860048036038101906103739190612575565b6108dd565b60405161038591906125e3565b60405180910390f35b6103a860048036038101906103a391906129da565b6108e4565b6040516103b59190612679565b60405180910390f35b6103c66108eb565b005b6103d0610a37565b005b6103da610b69565b6040516103e791906125e3565b60405180910390f35b6103f8610b92565b604051610405919061251d565b60405180910390f35b61042860048036038101906104239190612c89565b610c24565b005b610444600480360381019061043f9190612d0a565b610e41565b005b610460600480360381019061045b9190612d4a565b610f76565b005b61047c60048036038101906104779190612575565b610f9c565b604051610489919061251d565b60405180910390f35b6104ac60048036038101906104a79190612dcd565b611053565b6040516104b99190612472565b60405180910390f35b6104ca611101565b6040516104d7919061251d565b60405180910390f35b6104fa60048036038101906104f59190612e3c565b611193565b6040516105079190612472565b60405180910390f35b61052a600480360381019061052591906129da565b611227565b005b600060016000837bffffffffffffffffffffffffffffffffffffffffffffffffffffffff19167bffffffffffffffffffffffffffffffffffffffffffffffffffffffff1916815260200190815260200160002060009054906101000a900460ff169050919050565b6060600f80546105a390612eab565b80601f01602080910402602001604051908101604052809291908181526020018280546105cf90612eab565b801561061c5780601f106105f15761010080835404028352916020019161061c565b820191906000526020600020905b8154815290600101906020018083116105ff57829003601f168201915b5050505050905090565b6000919050565b5050565b6000600880549050905090565b61064833826113e1565b61065157600080fd5b61065c838383611476565b505050565b6106b98282600067ffffffffffffffff81111561068157610680612727565b5b6040519080825280601f01601f1916602001820160405280156106b35781602001600182028036833780820191505090505b50610737565b5050565b60006106c8836108e4565b82106106d357600080fd5b600660008473ffffffffffffffffffffffffffffffffffffffff1673ffffffffffffffffffffffffffffffffffffffff168152602001908152602001600020828154811061072457610723612edc565b5b9060005260206000200154905092915050565b505050565b3373ffffffffffffffffffffffffffffffffffffffff1660008054906101000a900473ffffffffffffffffffffffffffffffffffffffff1673ffffffffffffffffffffffffffffffffffffffff16146107ca576040517f08c379a00000000000000000000000000000000000000000000000000000000081526004016107c190612f57565b60405180910390fd5b600060149054906101000a900460ff16610819576040517f08c379a000000000000000000000000000000000000000000000000000000000815260040161081090612fc3565b60405180910390fd5b60008060146101000a81548160ff0219169083151502179055507f5db9ee0a495bf2e6ff9c91a7834c1ba4fdd244a5e8aa4e537bd38aeae4b073aa3360405161086291906125e3565b60405180910390a1565b61088783838360405180602001604052806000815250610f76565b505050565b6000610896610631565b82106108a157600080fd5b600882815481106108b5576108b4612edc565b5b90600052602060002001549050919050565b60008060149054906101000a900460ff16905090565b6000919050565b6000919050565b3373ffffffffffffffffffffffffffffffffffffffff1660008054906101000a900473ffffffffffffffffffffffffffffffffffffffff1673ffffffffffffffffffffffffffffffffffffffff1614610979576040517f08c379a000000000000000000000000000000000000000000000000000000000815260040161097090612f57565b60405180910390fd5b600073ffffffffffffffffffffffffffffffffffffffff1660008054906101000a900473ffffffffffffffffffffffffffffffffffffffff1673ffffffffffffffffffffffffffffffffffffffff167f8be0079c531659141344cd1fd0a4f28419497f9722a3daafe3b4186f6b6457e060405160405180910390a360008060006101000a81548173ffffffffffffffffffffffffffffffffffffffff021916908373ffffffffffffffffffffffffffffffffffffffff160217905550565b3373ffffffffffffffffffffffffffffffffffffffff1660008054906101000a900473ffffffffffffffffffffffffffffffffffffffff1673ffffffffffffffffffffffffffffffffffffffff1614610ac5576040517f08c379a0000000000000000000000000000000000000000000000000000000008152600401610abc90612f57565b60405180910390fd5b600060149054906101000a900460ff1615610b15576040517f08c379a0000000000000000000000000000000000000000000000000000000008152600401610b0c9061302f565b60405180910390fd5b6001600060146101000a81548160ff0219169083151502179055507f62e78cea01bee320cd4e420270b5ea74000d11b0c9f74754ebdbfc544b05a25833604051610b5f91906125e3565b60405180910390a1565b60008060009054906101000a900473ffffffffffffffffffffffffffffffffffffffff16905090565b606060108054610ba190612eab565b80601f0160208091040260200160405190810160405280929190818152602001828054610bcd90612eab565b8015610c1a5780601f10610bef57610100808354040283529160200191610c1a565b820191906000526020600020905b815481529060010190602001808311610bfd57829003601f168201915b5050505050905090565b60008282604051602001610c3992919061325d565b6040516020818303038152906040528051906020012090506018600082815260200190815260200160002060009054906101000a900460ff1615610cb2576040517f08c379a0000000000000000000000000000000000000000000000000000000008152600401610ca9906132d4565b60405180910390fd5b601660009054906101000a900473ffffffffffffffffffffffffffffffffffffffff1673ffffffffffffffffffffffffffffffffffffffff1663415df87c846000015185602001518660400151866040518563ffffffff1660e01b8152600401610d1f94939291906133b8565b602060405180830381865afa158015610d3c573d6000803e3d6000fd5b505050506040513d601f19601f82011682018060405250810190610d609190613414565b610d9f576040517f08c379a0000000000000000000000000000000000000000000000000000000008152600401610d969061348d565b60405180910390fd5b60016018600083815260200190815260200160002060006101000a81548160ff021916908315150217905550610dd5338561149a565b3373ffffffffffffffffffffffffffffffffffffffff167fb28582aaae510e6d1868676347916349fa4c0c49734e1a01e4373ff26a57f09260176000815480929190610e20906134dc565b9190505583604051610e33929190613533565b60405180910390a250505050565b3373ffffffffffffffffffffffffffffffffffffffff168273ffffffffffffffffffffffffffffffffffffffff1603610e7957600080fd5b80600560003373ffffffffffffffffffffffffffffffffffffffff1673ffffffffffffffffffffffffffffffffffffffff16815260200190815260200160002060008473ffffffffffffffffffffffffffffffffffffffff1673ffffffffffffffffffffffffffffffffffffffff16815260200190815260200160002060006101000a81548160ff0219169083151502179055508173ffffffffffffffffffffffffffffffffffffffff163373ffffffffffffffffffffffffffffffffffffffff167f17307eab39ab6107e8899845ad3d59bd9653f200f220920489ca2b5937696c3183604051610f6a9190612472565b60405180910390a35050565b610f8184848461063e565b610f8d848484846114bb565b610f9657600080fd5b50505050565b6060610fa7826115c3565b610fb057600080fd5b601260008381526020019081526020016000208054610fce90612eab565b80601f0160208091040260200160405190810160405280929190818152602001828054610ffa90612eab565b80156110475780601f1061101c57610100808354040283529160200191611047565b820191906000526020600020905b81548152906001019060200180831161102a57829003601f168201915b50505050509050919050565b60003373ffffffffffffffffffffffffffffffffffffffff1660008054906101000a900473ffffffffffffffffffffffffffffffffffffffff1673ffffffffffffffffffffffffffffffffffffffff16146110e3576040517f08c379a00000000000000000000000000000000000000000000000000000000081526004016110da90612f57565b60405180910390fd5b6110ed848461149a565b6110f683611635565b600190509392505050565b60606011805461111090612eab565b80601f016020809104026020016040519081016040528092919081815260200182805461113c90612eab565b80156111895780601f1061115e57610100808354040283529160200191611189565b820191906000526020600020905b81548152906001019060200180831161116c57829003601f168201915b5050505050905090565b6000600560008473ffffffffffffffffffffffffffffffffffffffff1673ffffffffffffffffffffffffffffffffffffffff16815260200190815260200160002060008373ffffffffffffffffffffffffffffffffffffffff1673ffffffffffffffffffffffffffffffffffffffff16815260200190815260200160002060009054906101000a900460ff16905092915050565b3373ffffffffffffffffffffffffffffffffffffffff1660008054906101000a900473ffffffffffffffffffffffffffffffffffffffff1673ffffffffffffffffffffffffffffffffffffffff16146112b5576040517f08c379a00000000000000000000000000000000000000000000000000000000081526004016112ac90612f57565b60405180910390fd5b600073ffffffffffffffffffffffffffffffffffffffff168173ffffffffffffffffffffffffffffffffffffffff1603611324576040517f08c379a000000000000000000000000000000000000000000000000000000000815260040161131b906135ce565b60405180910390fd5b806000806101000a81548173ffffffffffffffffffffffffffffffffffffffff021916908373ffffffffffffffffffffffffffffffffffffffff1602179055508073ffffffffffffffffffffffffffffffffffffffff1660008054906101000a900473ffffffffffffffffffffffffffffffffffffffff1673ffffffffffffffffffffffffffffffffffffffff167f8be0079c531659141344cd1fd0a4f28419497f9722a3daafe3b4186f6b6457e060405160405180910390a350565b6000806113ed836108dd565b90508073ffffffffffffffffffffffffffffffffffffffff168473ffffffffffffffffffffffffffffffffffffffff16148061145c57508373ffffffffffffffffffffffffffffffffffffffff1661144484610626565b73ffffffffffffffffffffffffffffffffffffffff16145b8061146d575061146c8185611193565b5b91505092915050565b611481838383611706565b61148b8382611934565b6114958282611aeb565b505050565b6114a48282611baf565b6114ae8282611aeb565b6114b781611cf4565b5050565b60006114dc8473ffffffffffffffffffffffffffffffffffffffff16611d3d565b6114e957600190506115bb565b60008473ffffffffffffffffffffffffffffffffffffffff1663150b7a02338887876040518563ffffffff1660e01b815260040161152a9493929190613643565b6020604051808303816000875af1158015611549573d6000803e3d6000fd5b505050506040513d601f19601f8201168201806040525081019061156d91906136a4565b905063150b7a0260e01b7bffffffffffffffffffffffffffffffffffffffffffffffffffffffff1916817bffffffffffffffffffffffffffffffffffffffffffffffffffffffff1916149150505b949350505050565b6000806002600084815260200190815260200160002060009054906101000a900473ffffffffffffffffffffffffffffffffffffffff169050600073ffffffffffffffffffffffffffffffffffffffff168173ffffffffffffffffffffffffffffffffffffffff161415915050919050565b61163e816115c3565b61164757600080fd5b6116e36011805461165790612eab565b80601f016020809104026020016040519081016040528092919081815260200182805461168390612eab565b80156116d05780601f106116a5576101008083540402835291602001916116d0565b820191906000526020600020905b8154815290600101906020018083116116b357829003601f168201915b50505050506116de83611d60565b611ecf565b601260008381526020019081526020016000209081611702919061387d565b5050565b8273ffffffffffffffffffffffffffffffffffffffff16611726826108dd565b73ffffffffffffffffffffffffffffffffffffffff161461177c576040517f08c379a0000000000000000000000000000000000000000000000000000000008152600401611773906139c1565b60405180910390fd5b600073ffffffffffffffffffffffffffffffffffffffff168273ffffffffffffffffffffffffffffffffffffffff16036117eb576040517f08c379a00000000000000000000000000000000000000000000000000000000081526004016117e290613a53565b60405180910390fd5b6117f481611f13565b61183b600460008573ffffffffffffffffffffffffffffffffffffffff1673ffffffffffffffffffffffffffffffffffffffff168152602001908152602001600020611fd1565b611882600460008473ffffffffffffffffffffffffffffffffffffffff1673ffffffffffffffffffffffffffffffffffffffff16815260200190815260200160002061202d565b816002600083815260200190815260200160002060006101000a81548173ffffffffffffffffffffffffffffffffffffffff021916908373ffffffffffffffffffffffffffffffffffffffff160217905550808273ffffffffffffffffffffffffffffffffffffffff168473ffffffffffffffffffffffffffffffffffffffff167fddf252ad1be2c89b69c2b068fc378daa952ba7f163c4a11628f55a4df523b3ef60405160405180910390a4505050565b60006001600660008573ffffffffffffffffffffffffffffffffffffffff1673ffffffffffffffffffffffffffffffffffffffff168152602001908152602001600020805490506119859190613a73565b9050600060076000848152602001908152602001600020549050818114611a80576000600660008673ffffffffffffffffffffffffffffffffffffffff1673ffffffffffffffffffffffffffffffffffffffff16815260200190815260200160002083815481106119f9576119f8612edc565b5b9060005260206000200154905080600660008773ffffffffffffffffffffffffffffffffffffffff1673ffffffffffffffffffffffffffffffffffffffff1681526020019081526020016000208381548110611a5857611a57612edc565b5b9060005260206000200181905550816007600083815260200190815260200160002081905550505b600660008573ffffffffffffffffffffffffffffffffffffffff1673ffffffffffffffffffffffffffffffffffffffff168152602001908152602001600020805480611acf57611ace613aa7565b5b6001900381819060005260206000200160009055905550505050565b600660008373ffffffffffffffffffffffffffffffffffffffff1673ffffffffffffffffffffffffffffffffffffffff168152602001908152602001600020805490506007600083815260200190815260200160002081905550600660008373ffffffffffffffffffffffffffffffffffffffff1673ffffffffffffffffffffffffffffffffffffffff1681526020019081526020016000208190806001815401808255809150506001900390600052602060002001600090919091909150555050565b600073ffffffffffffffffffffffffffffffffffffffff168273ffffffffffffffffffffffffffffffffffffffff1603611be857600080fd5b611bf1816115c3565b15611bfb57600080fd5b816002600083815260200190815260200160002060006101000a81548173ffffffffffffffffffffffffffffffffffffffff021916908373ffffffffffffffffffffffffffffffffffffffff160217905550611c94600460008473ffffffffffffffffffffffffffffffffffffffff1673ffffffffffffffffffffffffffffffffffffffff16815260200190815260200160002061202d565b808273ffffffffffffffffffffffffffffffffffffffff16600073ffffffffffffffffffffffffffffffffffffffff167fddf252ad1be2c89b69c2b068fc378daa952ba7f163c4a11628f55a4df523b3ef60405160405180910390a45050565b6008805490506009600083815260200190815260200160002081905550600881908060018154018082558091505060019003906000526020600020016000909190919091505550565b6000808273ffffffffffffffffffffffffffffffffffffffff163b119050919050565b606060008203611da7576040518060400160405280600181526020017f30000000000000000000000000000000000000000000000000000000000000008152509050611eca565b600082905060005b60008214611dd9578080611dc2906134dc565b915050600a82611dd29190613b05565b9150611daf565b60008167ffffffffffffffff811115611df557611df4612727565b5b6040519080825280601f01601f191660200182016040528015611e275781602001600182028036833780820191505090505b5090506000600183611e399190613a73565b90505b60008614611ec257600a86611e519190613b36565b6030611e5d9190613b67565b60f81b828280611e6c90613b9b565b935081518110611e7f57611e7e612edc565b5b60200101907effffffffffffffffffffffffffffffffffffffffffffffffffffffffffffff1916908160001a905350600a86611ebb9190613b05565b9550611e3c565b819450505050505b919050565b6060611f0b8383604051806020016040528060008152506040518060200160405280600081525060405180602001604052806000815250612043565b905092915050565b600073ffffffffffffffffffffffffffffffffffffffff166003600083815260200190815260200160002060009054906101000a900473ffffffffffffffffffffffffffffffffffffffff1673ffffffffffffffffffffffffffffffffffffffff1614611fce5760006003600083815260200190815260200160002060006101000a81548173ffffffffffffffffffffffffffffffffffffffff021916908373ffffffffffffffffffffffffffffffffffffffff1602179055505b50565b6000816000015490506000811161201d576040517f08c379a000000000000000000000000000000000000000000000000000000000815260040161201490613c10565b60405180910390fd5b6001810382600001819055505050565b6001816000016000828254019250508190555050565b6060600086905060008690506000869050600086905060008690506000815183518551875189516120749190613b67565b61207e9190613b67565b6120889190613b67565b6120929190613b67565b67ffffffffffffffff8111156120ab576120aa612727565b5b6040519080825280601f01601f1916602001820160405280156120dd5781602001600182028036833780820191505090505b5090506000819050600080600090505b88518110156121755788818151811061210957612108612edc565b5b602001015160f81c60f81b838380612120906134dc565b94508151811061213357612132612edc565b5b60200101907effffffffffffffffffffffffffffffffffffffffffffffffffffffffffffff1916908160001a905350808061216d906134dc565b9150506120ed565b600090505b87518110156122025787818151811061219657612195612edc565b5b602001015160f81c60f81b8383806121ad906134dc565b9450815181106121c0576121bf612edc565b5b60200101907effffffffffffffffffffffffffffffffffffffffffffffffffffffffffffff1916908160001a90535080806121fa906134dc565b91505061217a565b600090505b865181101561228f5786818151811061222357612222612edc565b5b602001015160f81c60f81b83838061223a906134dc565b94508151811061224d5761224c612edc565b5b60200101907effffffffffffffffffffffffffffffffffffffffffffffffffffffffffffff1916908160001a9053508080612287906134dc565b915050612207565b600090505b855181101561231c578581815181106122b0576122af612edc565b5b602001015160f81c60f81b8383806122c7906134dc565b9450815181106122da576122d9612edc565b5b60200101907effffffffffffffffffffffffffffffffffffffffffffffffffffffffffffff1916908160001a9053508080612314906134dc565b915050612294565b600090505b84518110156123a95784818151811061233d5761233c612edc565b5b602001015160f81c60f81b838380612354906134dc565b94508151811061236757612366612edc565b5b60200101907effffffffffffffffffffffffffffffffffffffffffffffffffffffffffffff1916908160001a90535080806123a1906134dc565b915050612321565b82995050505050505050505095945050505050565b6000604051905090565b600080fd5b600080fd5b60007fffffffff0000000000000000000000000000000000000000000000000000000082169050919050565b612407816123d2565b811461241257600080fd5b50565b600081359050612424816123fe565b92915050565b6000602082840312156124405761243f6123c8565b5b600061244e84828501612415565b91505092915050565b60008115159050919050565b61246c81612457565b82525050565b60006020820190506124876000830184612463565b92915050565b600081519050919050565b600082825260208201905092915050565b60005b838110156124c75780820151818401526020810190506124ac565b60008484015250505050565b6000601f19601f8301169050919050565b60006124ef8261248d565b6124f98185612498565b93506125098185602086016124a9565b612512816124d3565b840191505092915050565b6000602082019050818103600083015261253781846124e4565b905092915050565b6000819050919050565b6125528161253f565b811461255d57600080fd5b50565b60008135905061256f81612549565b92915050565b60006020828403121561258b5761258a6123c8565b5b600061259984828501612560565b91505092915050565b600073ffffffffffffffffffffffffffffffffffffffff82169050919050565b60006125cd826125a2565b9050919050565b6125dd816125c2565b82525050565b60006020820190506125f860008301846125d4565b92915050565b612607816125c2565b811461261257600080fd5b50565b600081359050612624816125fe565b92915050565b60008060408385031215612641576126406123c8565b5b600061264f85828601612615565b925050602061266085828601612560565b9150509250929050565b6126738161253f565b82525050565b600060208201905061268e600083018461266a565b92915050565b6000806000606084860312156126ad576126ac6123c8565b5b60006126bb86828701612615565b93505060206126cc86828701612615565b92505060406126dd86828701612560565b9150509250925092565b6000819050919050565b6126fa816126e7565b811461270557600080fd5b50565b600081359050612717816126f1565b92915050565b600080fd5b600080fd5b7f4e487b7100000000000000000000000000000000000000000000000000000000600052604160045260246000fd5b61275f826124d3565b810181811067ffffffffffffffff8211171561277e5761277d612727565b5b80604052505050565b60006127916123be565b905061279d8282612756565b919050565b600067ffffffffffffffff8211156127bd576127bc612727565b5b6127c6826124d3565b9050602081019050919050565b82818337600083830152505050565b60006127f56127f0846127a2565b612787565b90508281526020810184848401111561281157612810612722565b5b61281c8482856127d3565b509392505050565b600082601f8301126128395761283861271d565b5b81356128498482602086016127e2565b91505092915050565b60008060408385031215612869576128686123c8565b5b600061287785828601612708565b925050602083013567ffffffffffffffff811115612898576128976123cd565b5b6128a485828601612824565b9150509250929050565b600067ffffffffffffffff8211156128c9576128c8612727565b5b6128d2826124d3565b9050602081019050919050565b60006128f26128ed846128ae565b612787565b90508281526020810184848401111561290e5761290d612722565b5b6129198482856127d3565b509392505050565b600082601f8301126129365761293561271d565b5b81356129468482602086016128df565b91505092915050565b600080600060608486031215612968576129676123c8565b5b600061297686828701612708565b935050602084013567ffffffffffffffff811115612997576129966123cd565b5b6129a386828701612824565b925050604084013567ffffffffffffffff8111156129c4576129c36123cd565b5b6129d086828701612921565b9150509250925092565b6000602082840312156129f0576129ef6123c8565b5b60006129fe84828501612615565b91505092915050565b600080fd5b600067ffffffffffffffff821115612a2757612a26612727565b5b602082029050919050565b600080fd5b6000612a4a612a4584612a0c565b612787565b90508060208402830185811115612a6457612a63612a32565b5b835b81811015612a8d5780612a798882612560565b845260208401935050602081019050612a66565b5050509392505050565b600082601f830112612aac57612aab61271d565b5b6002612ab9848285612a37565b91505092915050565b600067ffffffffffffffff821115612add57612adc612727565b5b602082029050919050565b6000612afb612af684612ac2565b612787565b90508060408402830185811115612b1557612b14612a32565b5b835b81811015612b3e5780612b2a8882612a97565b845260208401935050604081019050612b17565b5050509392505050565b600082601f830112612b5d57612b5c61271d565b5b6002612b6a848285612ae8565b91505092915050565b60006101008284031215612b8a57612b89612a07565b5b612b946060612787565b90506000612ba484828501612a97565b6000830152506040612bb884828501612b48565b60208301525060c0612bcc84828501612a97565b60408301525092915050565b600067ffffffffffffffff821115612bf357612bf2612727565b5b602082029050919050565b6000612c11612c0c84612bd8565b612787565b90508060208402830185811115612c2b57612c2a612a32565b5b835b81811015612c545780612c408882612560565b845260208401935050602081019050612c2d565b5050509392505050565b600082601f830112612c7357612c7261271d565b5b6003612c80848285612bfe565b91505092915050565b60008060006101808486031215612ca357612ca26123c8565b5b6000612cb186828701612560565b9350506020612cc286828701612b73565b925050610120612cd486828701612c5e565b9150509250925092565b612ce781612457565b8114612cf257600080fd5b50565b600081359050612d0481612cde565b92915050565b60008060408385031215612d2157612d206123c8565b5b6000612d2f85828601612615565b9250506020612d4085828601612cf5565b9150509250929050565b60008060008060808587031215612d6457612d636123c8565b5b6000612d7287828801612615565b9450506020612d8387828801612615565b9350506040612d9487828801612560565b925050606085013567ffffffffffffffff811115612db557612db46123cd565b5b612dc187828801612921565b91505092959194509250565b600080600060608486031215612de657612de56123c8565b5b6000612df486828701612615565b9350506020612e0586828701612560565b925050604084013567ffffffffffffffff811115612e2657612e256123cd565b5b612e3286828701612824565b9150509250925092565b60008060408385031215612e5357612e526123c8565b5b6000612e6185828601612615565b9250506020612e7285828601612615565b9150509250929050565b7f4e487b7100000000000000000000000000000000000000000000000000000000600052602260045260246000fd5b60006002820490506001821680612ec357607f821691505b602082108103612ed657612ed5612e7c565b5b50919050565b7f4e487b7100000000000000000000000000000000000000000000000000000000600052603260045260246000fd5b7f4f776e61626c653a2063616c6c6572206973206e6f7420746865206f776e6572600082015250565b6000612f41602083612498565b9150612f4c82612f0b565b602082019050919050565b60006020820190508181036000830152612f7081612f34565b9050919050565b7f5061757361626c653a206e6f7420706175736564000000000000000000000000600082015250565b6000612fad601483612498565b9150612fb882612f77565b602082019050919050565b60006020820190508181036000830152612fdc81612fa0565b9050919050565b7f5061757361626c653a2070617573656400000000000000000000000000000000600082015250565b6000613019601083612498565b915061302482612fe3565b602082019050919050565b600060208201905081810360008301526130488161300c565b9050919050565b600060029050919050565b600081905092915050565b6000819050919050565b6130788161253f565b82525050565b600061308a838361306f565b60208301905092915050565b6000602082019050919050565b6130ac8161304f565b6130b6818461305a565b92506130c182613065565b8060005b838110156130f25781516130d9878261307e565b96506130e483613096565b9250506001810190506130c5565b505050505050565b600060029050919050565b600081905092915050565b6000819050919050565b600061312683836130a3565b60408301905092915050565b6000602082019050919050565b613148816130fa565b6131528184613105565b925061315d82613110565b8060005b8381101561318e578151613175878261311a565b965061318083613132565b925050600181019050613161565b505050505050565b610100820160008201516131ad60008501826130a3565b5060208201516131c0604085018261313f565b5060408201516131d360c08501826130a3565b50505050565b600060039050919050565b600081905092915050565b6000819050919050565b6000602082019050919050565b61320f816131d9565b61321981846131e4565b9250613224826131ef565b8060005b8381101561325557815161323c878261307e565b9650613247836131f9565b925050600181019050613228565b505050505050565b6000610160820190506132736000830185613196565b613281610100830184613206565b9392505050565b7f536f6c7574696f6e2065786973747320616c7265616479000000000000000000600082015250565b60006132be601783612498565b91506132c982613288565b602082019050919050565b600060208201905081810360008301526132ed816132b1565b9050919050565b600081905092915050565b6133088161304f565b61331281846132f4565b925061331d82613065565b8060005b8381101561334e578151613335878261307e565b965061334083613096565b925050600181019050613321565b505050505050565b600081905092915050565b61336a816130fa565b6133748184613356565b925061337f82613110565b8060005b838110156133b0578151613397878261311a565b96506133a283613132565b925050600181019050613383565b505050505050565b6000610160820190506133ce60008301876132ff565b6133db6040830186613361565b6133e860c08301856132ff565b6133f6610100830184613206565b95945050505050565b60008151905061340e81612cde565b92915050565b60006020828403121561342a576134296123c8565b5b6000613438848285016133ff565b91505092915050565b7f536f6c7574696f6e206e6f742076616c69640000000000000000000000000000600082015250565b6000613477601283612498565b915061348282613441565b602082019050919050565b600060208201905081810360008301526134a68161346a565b9050919050565b7f4e487b7100000000000000000000000000000000000000000000000000000000600052601160045260246000fd5b60006134e78261253f565b91507fffffffffffffffffffffffffffffffffffffffffffffffffffffffffffffffff8203613519576135186134ad565b5b600182019050919050565b61352d816126e7565b82525050565b6000604082019050613548600083018561266a565b6135556020830184613524565b9392505050565b7f4f776e61626c653a206e6577206f776e657220697320746865207a65726f206160008201527f6464726573730000000000000000000000000000000000000000000000000000602082015250565b60006135b8602683612498565b91506135c38261355c565b604082019050919050565b600060208201905081810360008301526135e7816135ab565b9050919050565b600081519050919050565b600082825260208201905092915050565b6000613615826135ee565b61361f81856135f9565b935061362f8185602086016124a9565b613638816124d3565b840191505092915050565b600060808201905061365860008301876125d4565b61366560208301866125d4565b613672604083018561266a565b8181036060830152613684818461360a565b905095945050505050565b60008151905061369e816123fe565b92915050565b6000602082840312156136ba576136b96123c8565b5b60006136c88482850161368f565b91505092915050565b60008190508160005260206000209050919050565b60006020601f8301049050919050565b600082821b905092915050565b6000600883026137337fffffffffffffffffffffffffffffffffffffffffffffffffffffffffffffffff826136f6565b61373d86836136f6565b95508019841693508086168417925050509392505050565b6000819050919050565b600061377a6137756137708461253f565b613755565b61253f565b9050919050565b6000819050919050565b6137948361375f565b6137a86137a082613781565b848454613703565b825550505050565b600090565b6137bd6137b0565b6137c881848461378b565b505050565b5b818110156137ec576137e16000826137b5565b6001810190506137ce565b5050565b601f82111561383157613802816136d1565b61380b846136e6565b8101602085101561381a578190505b61382e613826856136e6565b8301826137cd565b50505b505050565b600082821c905092915050565b600061385460001984600802613836565b1980831691505092915050565b600061386d8383613843565b9150826002028217905092915050565b6138868261248d565b67ffffffffffffffff81111561389f5761389e612727565b5b6138a98254612eab565b6138b48282856137f0565b600060209050601f8311600181146138e757600084156138d5578287015190505b6138df8582613861565b865550613947565b601f1984166138f5866136d1565b60005b8281101561391d578489015182556001820191506020850194506020810190506138f8565b8683101561393a5784890151613936601f891682613843565b8355505b6001600288020188555050505b505050505050565b7f4552433732313a207472616e73666572206f6620746f6b656e2074686174206960008201527f73206e6f74206f776e0000000000000000000000000000000000000000000000602082015250565b60006139ab602983612498565b91506139b68261394f565b604082019050919050565b600060208201905081810360008301526139da8161399e565b9050919050565b7f4552433732313a207472616e7366657220746f20746865207a65726f2061646460008201527f7265737300000000000000000000000000000000000000000000000000000000602082015250565b6000613a3d602483612498565b9150613a48826139e1565b604082019050919050565b60006020820190508181036000830152613a6c81613a30565b9050919050565b6000613a7e8261253f565b9150613a898361253f565b9250828203905081811115613aa157613aa06134ad565b5b92915050565b7f4e487b7100000000000000000000000000000000000000000000000000000000600052603160045260246000fd5b7f4e487b7100000000000000000000000000000000000000000000000000000000600052601260045260246000fd5b6000613b108261253f565b9150613b1b8361253f565b925082613b2b57613b2a613ad6565b5b828204905092915050565b6000613b418261253f565b9150613b4c8361253f565b925082613b5c57613b5b613ad6565b5b828206905092915050565b6000613b728261253f565b9150613b7d8361253f565b9250828201905080821115613b9557613b946134ad565b5b92915050565b6000613ba68261253f565b915060008203613bb957613bb86134ad565b5b600182039050919050565b7f436f756e7465723a2064656372656d656e74206f766572666c6f770000000000600082015250565b6000613bfa601b83612498565b9150613c0582613bc4565b602082019050919050565b60006020820190508181036000830152613c2981613bed565b905091905056fea26469706673582212203179fe99f5f093946191caf3e1b514ad9b21a87b191daf6c8024178397571b0864736f6c6343000811003368747470733a2f2f73332d75732d776573742d322e616d617a6f6e6177732e636f6d2f756461636974792d626c6f636b636861696e2f63617073746f6e652f",
  "immutableReferences": {},
  "source": "//SPDX-License-Identifier: CC BY-NC-ND 4.0\npragma solidity ^0.8.0;\n\nimport \"./ERC721Mintable.sol\";\nimport \"./verifier.sol\";\n\n// TODO define a contract call to the zokrates generated solidity contract <Verifier> or <renamedVerifier>\n// TODO define another contract named SolnSquareVerifier that inherits from your ERC721Mintable class\n// TODO define a solutions struct that can hold an index & an address\n// TODO define an array of the above struct\n// TODO define a mapping to store unique solutions submitted\n// TODO Create an event to emit when a solution is added\n// TODO Create a function to add the solutions to the array and emit the event\n// TODO Create a function to mint new NFT only after the solution has been verified\n//  - make sure the solution is unique (has not been used before)\n//  - make sure you handle metadata as well as tokenSuplly\n\ncontract SolnSquareVerifier is CapstoneERC721Token {\n    Verifier private verifierContract;\n    uint256 private index;\n\n    struct Proof {\n        uint256[2] a;\n        uint256[2][2] b;\n        uint256[2] c;\n    }\n    struct Solution {\n        Proof _proof;\n        uint256[3] _input;\n        address _submitter;\n        uint256 _index;\n    }\n\n    mapping(bytes32 => bool) solutions;\n\n    event SolutionAdded(address indexed submitter, uint256 index, bytes32 hash);\n\n    constructor(address _verifierContract) {\n        verifierContract = Verifier(_verifierContract);\n    }\n\n    function submitProof(Proof memory proof_, uint256[3] memory input_)\n        internal\n    {\n        Solution memory solution = Solution({\n            _proof: proof_,\n            _input: input_,\n            _submitter: msg.sender,\n            _index: index\n        });\n\n        bytes32 hash = keccak256(abi.encode(solution));\n\n        // Does the solution exist already?\n        require(!solutions[hash], \"Solution exists already\");\n\n        // Verify the proof\n        require(\n            verifierContract.verifyTx(proof_.a, proof_.b, proof_.c, input_),\n            \"Solution not valid\"\n        );\n\n        // Proof is valid so add it to the array\n        solutions[hash] = true;\n\n        emit SolutionAdded(msg.sender, index++, hash);\n    }\n\n    /**\n     * @notice This function mints a new token after verifying that the sender\n     * has indeed solved the key and that the solution is unique\n     * @param tokenId The token ID to mint\n     * @param proof The proof of the solution\n     * @param input The input of the proof\n     */\n    function mintNFT(\n        uint256 tokenId,\n        Proof memory proof,\n        uint256[3] memory input\n    ) public {\n        // Check that the solution is unique\n        bytes32 hash = keccak256(abi.encode(proof, input));\n        require(!solutions[hash], \"Solution exists already\");\n\n        // Verify the proof\n        require(\n            verifierContract.verifyTx(proof.a, proof.b, proof.c, input),\n            \"Solution not valid\"\n        );\n\n        // Proof is valid so add it to the array\n        solutions[hash] = true;\n\n        // Mint the token\n        super._mint(msg.sender, tokenId);\n\n        // Emit the event\n        emit SolutionAdded(msg.sender, index++, hash);\n    }\n}\n",
  "sourcePath": "/mnt/Data/Study/Udacity/Udacity-Capstone-Real-Estate-Marketplace-Project/contracts/SolnSquareVerifier.sol",
  "compiler": {
    "name": "solc",
    "version": "0.8.17+commit.8df45f5f.Emscripten.clang"
  },
  "schemaVersion": "3.4.9",
  "updatedAt": "2022-09-12T13:59:32.123Z",
  "devdoc": {
    "kind": "dev",
    "methods": {
      "isApprovedForAll(address,address)": {
        "details": "Tells whether an operator is approved by a given owner",
        "params": {
          "operator": "operator address which you want to query the approval of",
          "owner": "owner address which you want to query the approval of"
        },
        "returns": {
          "_0": "bool whether the given operator is approved by the given owner"
        }
      },
      "mintNFT(uint256,(uint256[2],uint256[2][2],uint256[2]),uint256[3])": {
        "params": {
          "input": "The input of the proof",
          "proof": "The proof of the solution",
          "tokenId": "The token ID to mint"
        }
      },
      "setApprovalForAll(address,bool)": {
        "details": "Sets or unsets the approval of a given operator An operator is allowed to transfer all tokens of the sender on their behalf",
        "params": {
          "approved": "representing the status of the approval to be set",
          "to": "operator address to set the approval"
        }
      },
      "supportsInterface(bytes4)": {
        "details": "implement supportsInterface(bytes4) using a lookup table"
      },
      "tokenByIndex(uint256)": {
        "details": "Gets the token ID at a given index of all the tokens in this contract Reverts if the index is greater or equal to the total number of tokens",
        "params": {
          "index": "uint256 representing the index to be accessed of the tokens list"
        },
        "returns": {
          "_0": "uint256 token ID at the given index of the tokens list"
        }
      },
      "tokenOfOwnerByIndex(address,uint256)": {
        "details": "Gets the token ID at a given index of the tokens list of the requested owner",
        "params": {
          "index": "uint256 representing the index to be accessed of the requested tokens list",
          "owner": "address owning the tokens list to be accessed"
        },
        "returns": {
          "_0": "uint256 token ID at the given index of the tokens list owned by the requested address"
        }
      },
      "totalSupply()": {
        "details": "Gets the total amount of tokens stored by the contract",
        "returns": {
          "_0": "uint256 representing the total amount of tokens"
        }
      }
    },
    "version": 1
  },
  "userdoc": {
    "kind": "user",
    "methods": {
      "mintNFT(uint256,(uint256[2],uint256[2][2],uint256[2]),uint256[3])": {
        "notice": "This function mints a new token after verifying that the sender has indeed solved the key and that the solution is unique"
      }
    },
    "version": 1
  }
}